{
  "_format": "hh-sol-artifact-1",
  "contractName": "IncoLightning",
  "sourceName": "@inco/lightning/src/IncoLightning.sol",
  "abi": [
    {
      "inputs": [
        {
          "internalType": "bytes32",
          "name": "salt",
          "type": "bytes32"
        }
      ],
      "stateMutability": "nonpayable",
      "type": "constructor"
    },
    {
      "inputs": [
        {
          "internalType": "address",
          "name": "target",
          "type": "address"
        }
      ],
      "name": "AddressEmptyCode",
      "type": "error"
    },
    {
      "inputs": [],
      "name": "ECDSAInvalidSignature",
      "type": "error"
    },
    {
      "inputs": [
        {
          "internalType": "uint256",
          "name": "length",
          "type": "uint256"
        }
      ],
      "name": "ECDSAInvalidSignatureLength",
      "type": "error"
    },
    {
      "inputs": [
        {
          "internalType": "bytes32",
          "name": "s",
          "type": "bytes32"
        }
      ],
      "name": "ECDSAInvalidSignatureS",
      "type": "error"
    },
    {
      "inputs": [
        {
          "internalType": "address",
          "name": "implementation",
          "type": "address"
        }
      ],
      "name": "ERC1967InvalidImplementation",
      "type": "error"
    },
    {
      "inputs": [],
      "name": "ERC1967NonPayable",
      "type": "error"
    },
    {
      "inputs": [],
      "name": "FailedCall",
      "type": "error"
    },
    {
      "inputs": [],
      "name": "HandleAlreadyExists",
      "type": "error"
    },
    {
      "inputs": [],
      "name": "InvalidInitialization",
      "type": "error"
    },
    {
      "inputs": [],
      "name": "InvalidResultSignature",
      "type": "error"
    },
    {
      "inputs": [],
      "name": "InvalidShortString",
      "type": "error"
    },
    {
      "inputs": [],
      "name": "NotInitializing",
      "type": "error"
    },
    {
      "inputs": [
        {
          "internalType": "address",
          "name": "owner",
          "type": "address"
        }
      ],
      "name": "OwnableInvalidOwner",
      "type": "error"
    },
    {
      "inputs": [
        {
          "internalType": "address",
          "name": "account",
          "type": "address"
        }
      ],
      "name": "OwnableUnauthorizedAccount",
      "type": "error"
    },
    {
      "inputs": [],
      "name": "RequestAlreadyFulfilled",
      "type": "error"
    },
    {
      "inputs": [],
      "name": "RequestExpired",
      "type": "error"
    },
    {
      "inputs": [
        {
          "internalType": "bytes32",
          "name": "handle",
          "type": "bytes32"
        },
        {
          "internalType": "address",
          "name": "sender",
          "type": "address"
        }
      ],
      "name": "SenderNotAllowedForHandle",
      "type": "error"
    },
    {
      "inputs": [
        {
          "internalType": "string",
          "name": "str",
          "type": "string"
        }
      ],
      "name": "StringTooLong",
      "type": "error"
    },
    {
      "inputs": [],
      "name": "UUPSUnauthorizedCallContext",
      "type": "error"
    },
    {
      "inputs": [
        {
          "internalType": "bytes32",
          "name": "slot",
          "type": "bytes32"
        }
      ],
      "name": "UUPSUnsupportedProxiableUUID",
      "type": "error"
    },
    {
      "inputs": [
        {
          "internalType": "enum ETypes",
          "name": "actual",
          "type": "uint8"
        },
        {
          "internalType": "enum ETypes",
          "name": "expected",
          "type": "uint8"
        }
      ],
      "name": "UnexpectedType",
      "type": "error"
    },
    {
      "inputs": [
        {
          "internalType": "enum ETypes",
          "name": "actual",
          "type": "uint8"
        }
      ],
      "name": "UnsupportedType",
      "type": "error"
    },
    {
      "anonymous": false,
      "inputs": [
        {
          "indexed": true,
          "internalType": "uint256",
          "name": "requestId",
          "type": "uint256"
        },
        {
          "indexed": true,
          "internalType": "bytes32",
          "name": "handle",
          "type": "bytes32"
        },
        {
          "indexed": false,
          "internalType": "uint256",
          "name": "maxTimestamp",
          "type": "uint256"
        },
        {
          "indexed": false,
          "internalType": "uint256",
          "name": "eventId",
          "type": "uint256"
        }
      ],
      "name": "DecryptionRequested",
      "type": "event"
    },
    {
      "anonymous": false,
      "inputs": [
        {
          "indexed": true,
          "internalType": "euint256",
          "name": "lhs",
          "type": "bytes32"
        },
        {
          "indexed": true,
          "internalType": "euint256",
          "name": "rhs",
          "type": "bytes32"
        },
        {
          "indexed": true,
          "internalType": "euint256",
          "name": "result",
          "type": "bytes32"
        },
        {
          "indexed": false,
          "internalType": "uint256",
          "name": "eventId",
          "type": "uint256"
        }
      ],
      "name": "EAdd",
      "type": "event"
    },
    {
      "anonymous": false,
      "inputs": [
        {
          "indexed": true,
          "internalType": "bytes32",
          "name": "lhs",
          "type": "bytes32"
        },
        {
          "indexed": true,
          "internalType": "bytes32",
          "name": "rhs",
          "type": "bytes32"
        },
        {
          "indexed": true,
          "internalType": "bytes32",
          "name": "result",
          "type": "bytes32"
        },
        {
          "indexed": false,
          "internalType": "uint256",
          "name": "eventId",
          "type": "uint256"
        }
      ],
      "name": "EBitAnd",
      "type": "event"
    },
    {
      "anonymous": false,
      "inputs": [
        {
          "indexed": true,
          "internalType": "bytes32",
          "name": "lhs",
          "type": "bytes32"
        },
        {
          "indexed": true,
          "internalType": "bytes32",
          "name": "rhs",
          "type": "bytes32"
        },
        {
          "indexed": true,
          "internalType": "bytes32",
          "name": "result",
          "type": "bytes32"
        },
        {
          "indexed": false,
          "internalType": "uint256",
          "name": "eventId",
          "type": "uint256"
        }
      ],
      "name": "EBitOr",
      "type": "event"
    },
    {
      "anonymous": false,
      "inputs": [
        {
          "indexed": true,
          "internalType": "bytes32",
          "name": "lhs",
          "type": "bytes32"
        },
        {
          "indexed": true,
          "internalType": "bytes32",
          "name": "rhs",
          "type": "bytes32"
        },
        {
          "indexed": true,
          "internalType": "bytes32",
          "name": "result",
          "type": "bytes32"
        },
        {
          "indexed": false,
          "internalType": "uint256",
          "name": "eventId",
          "type": "uint256"
        }
      ],
      "name": "EBitXor",
      "type": "event"
    },
    {
      "anonymous": false,
      "inputs": [
        {
          "indexed": true,
          "internalType": "bytes32",
          "name": "ct",
          "type": "bytes32"
        },
        {
          "indexed": true,
          "internalType": "uint8",
          "name": "toType",
          "type": "uint8"
        },
        {
          "indexed": true,
          "internalType": "bytes32",
          "name": "result",
          "type": "bytes32"
        },
        {
          "indexed": false,
          "internalType": "uint256",
          "name": "eventId",
          "type": "uint256"
        }
      ],
      "name": "ECast",
      "type": "event"
    },
    {
      "anonymous": false,
      "inputs": [
        {
          "indexed": true,
          "internalType": "euint256",
          "name": "lhs",
          "type": "bytes32"
        },
        {
          "indexed": true,
          "internalType": "euint256",
          "name": "rhs",
          "type": "bytes32"
        },
        {
          "indexed": true,
          "internalType": "euint256",
          "name": "result",
          "type": "bytes32"
        },
        {
          "indexed": false,
          "internalType": "uint256",
          "name": "eventId",
          "type": "uint256"
        }
      ],
      "name": "EDiv",
      "type": "event"
    },
    {
      "anonymous": false,
      "inputs": [
        {
          "indexed": true,
          "internalType": "euint256",
          "name": "lhs",
          "type": "bytes32"
        },
        {
          "indexed": true,
          "internalType": "euint256",
          "name": "rhs",
          "type": "bytes32"
        },
        {
          "indexed": true,
          "internalType": "ebool",
          "name": "result",
          "type": "bytes32"
        },
        {
          "indexed": false,
          "internalType": "uint256",
          "name": "eventId",
          "type": "uint256"
        }
      ],
      "name": "EEq",
      "type": "event"
    },
    {
      "anonymous": false,
      "inputs": [
        {
          "indexed": true,
          "internalType": "euint256",
          "name": "lhs",
          "type": "bytes32"
        },
        {
          "indexed": true,
          "internalType": "euint256",
          "name": "rhs",
          "type": "bytes32"
        },
        {
          "indexed": true,
          "internalType": "ebool",
          "name": "result",
          "type": "bytes32"
        },
        {
          "indexed": false,
          "internalType": "uint256",
          "name": "eventId",
          "type": "uint256"
        }
      ],
      "name": "EGe",
      "type": "event"
    },
    {
      "anonymous": false,
      "inputs": [
        {
          "indexed": true,
          "internalType": "euint256",
          "name": "lhs",
          "type": "bytes32"
        },
        {
          "indexed": true,
          "internalType": "euint256",
          "name": "rhs",
          "type": "bytes32"
        },
        {
          "indexed": true,
          "internalType": "ebool",
          "name": "result",
          "type": "bytes32"
        },
        {
          "indexed": false,
          "internalType": "uint256",
          "name": "eventId",
          "type": "uint256"
        }
      ],
      "name": "EGt",
      "type": "event"
    },
    {
      "anonymous": false,
      "inputs": [],
      "name": "EIP712DomainChanged",
      "type": "event"
    },
    {
      "anonymous": false,
      "inputs": [
        {
          "indexed": false,
          "internalType": "ebool",
          "name": "control",
          "type": "bytes32"
        },
        {
          "indexed": true,
          "internalType": "bytes32",
          "name": "ifTrue",
          "type": "bytes32"
        },
        {
          "indexed": true,
          "internalType": "bytes32",
          "name": "ifFalse",
          "type": "bytes32"
        },
        {
          "indexed": true,
          "internalType": "bytes32",
          "name": "result",
          "type": "bytes32"
        },
        {
          "indexed": false,
          "internalType": "uint256",
          "name": "eventId",
          "type": "uint256"
        }
      ],
      "name": "EIfThenElse",
      "type": "event"
    },
    {
      "anonymous": false,
      "inputs": [
        {
          "indexed": true,
          "internalType": "euint256",
          "name": "lhs",
          "type": "bytes32"
        },
        {
          "indexed": true,
          "internalType": "euint256",
          "name": "rhs",
          "type": "bytes32"
        },
        {
          "indexed": true,
          "internalType": "ebool",
          "name": "result",
          "type": "bytes32"
        },
        {
          "indexed": false,
          "internalType": "uint256",
          "name": "eventId",
          "type": "uint256"
        }
      ],
      "name": "ELe",
      "type": "event"
    },
    {
      "anonymous": false,
      "inputs": [
        {
          "indexed": true,
          "internalType": "euint256",
          "name": "lhs",
          "type": "bytes32"
        },
        {
          "indexed": true,
          "internalType": "euint256",
          "name": "rhs",
          "type": "bytes32"
        },
        {
          "indexed": true,
          "internalType": "ebool",
          "name": "result",
          "type": "bytes32"
        },
        {
          "indexed": false,
          "internalType": "uint256",
          "name": "eventId",
          "type": "uint256"
        }
      ],
      "name": "ELt",
      "type": "event"
    },
    {
      "anonymous": false,
      "inputs": [
        {
          "indexed": true,
          "internalType": "euint256",
          "name": "lhs",
          "type": "bytes32"
        },
        {
          "indexed": true,
          "internalType": "euint256",
          "name": "rhs",
          "type": "bytes32"
        },
        {
          "indexed": true,
          "internalType": "euint256",
          "name": "result",
          "type": "bytes32"
        },
        {
          "indexed": false,
          "internalType": "uint256",
          "name": "eventId",
          "type": "uint256"
        }
      ],
      "name": "EMax",
      "type": "event"
    },
    {
      "anonymous": false,
      "inputs": [
        {
          "indexed": true,
          "internalType": "euint256",
          "name": "lhs",
          "type": "bytes32"
        },
        {
          "indexed": true,
          "internalType": "euint256",
          "name": "rhs",
          "type": "bytes32"
        },
        {
          "indexed": true,
          "internalType": "euint256",
          "name": "result",
          "type": "bytes32"
        },
        {
          "indexed": false,
          "internalType": "uint256",
          "name": "eventId",
          "type": "uint256"
        }
      ],
      "name": "EMin",
      "type": "event"
    },
    {
      "anonymous": false,
      "inputs": [
        {
          "indexed": true,
          "internalType": "euint256",
          "name": "lhs",
          "type": "bytes32"
        },
        {
          "indexed": true,
          "internalType": "euint256",
          "name": "rhs",
          "type": "bytes32"
        },
        {
          "indexed": true,
          "internalType": "euint256",
          "name": "result",
          "type": "bytes32"
        },
        {
          "indexed": false,
          "internalType": "uint256",
          "name": "eventId",
          "type": "uint256"
        }
      ],
      "name": "EMul",
      "type": "event"
    },
    {
      "anonymous": false,
      "inputs": [
        {
          "indexed": true,
          "internalType": "euint256",
          "name": "lhs",
          "type": "bytes32"
        },
        {
          "indexed": true,
          "internalType": "euint256",
          "name": "rhs",
          "type": "bytes32"
        },
        {
          "indexed": true,
          "internalType": "ebool",
          "name": "result",
          "type": "bytes32"
        },
        {
          "indexed": false,
          "internalType": "uint256",
          "name": "eventId",
          "type": "uint256"
        }
      ],
      "name": "ENe",
      "type": "event"
    },
    {
      "anonymous": false,
      "inputs": [
        {
          "indexed": true,
          "internalType": "ebool",
          "name": "operand",
          "type": "bytes32"
        },
        {
          "indexed": true,
          "internalType": "ebool",
          "name": "result",
          "type": "bytes32"
        },
        {
          "indexed": false,
          "internalType": "uint256",
          "name": "eventId",
          "type": "uint256"
        }
      ],
      "name": "ENot",
      "type": "event"
    },
    {
      "anonymous": false,
      "inputs": [
        {
          "indexed": true,
          "internalType": "uint256",
          "name": "counter",
          "type": "uint256"
        },
        {
          "indexed": false,
          "internalType": "enum ETypes",
          "name": "randType",
          "type": "uint8"
        },
        {
          "indexed": true,
          "internalType": "bytes32",
          "name": "result",
          "type": "bytes32"
        },
        {
          "indexed": false,
          "internalType": "uint256",
          "name": "eventId",
          "type": "uint256"
        }
      ],
      "name": "ERand",
      "type": "event"
    },
    {
      "anonymous": false,
      "inputs": [
        {
          "indexed": true,
          "internalType": "uint256",
          "name": "counter",
          "type": "uint256"
        },
        {
          "indexed": false,
          "internalType": "enum ETypes",
          "name": "randType",
          "type": "uint8"
        },
        {
          "indexed": true,
          "internalType": "bytes32",
          "name": "upperBound",
          "type": "bytes32"
        },
        {
          "indexed": true,
          "internalType": "bytes32",
          "name": "result",
          "type": "bytes32"
        },
        {
          "indexed": false,
          "internalType": "uint256",
          "name": "eventId",
          "type": "uint256"
        }
      ],
      "name": "ERandBounded",
      "type": "event"
    },
    {
      "anonymous": false,
      "inputs": [
        {
          "indexed": true,
          "internalType": "euint256",
          "name": "lhs",
          "type": "bytes32"
        },
        {
          "indexed": true,
          "internalType": "euint256",
          "name": "rhs",
          "type": "bytes32"
        },
        {
          "indexed": true,
          "internalType": "euint256",
          "name": "result",
          "type": "bytes32"
        },
        {
          "indexed": false,
          "internalType": "uint256",
          "name": "eventId",
          "type": "uint256"
        }
      ],
      "name": "ERem",
      "type": "event"
    },
    {
      "anonymous": false,
      "inputs": [
        {
          "indexed": true,
          "internalType": "euint256",
          "name": "lhs",
          "type": "bytes32"
        },
        {
          "indexed": true,
          "internalType": "euint256",
          "name": "rhs",
          "type": "bytes32"
        },
        {
          "indexed": true,
          "internalType": "euint256",
          "name": "result",
          "type": "bytes32"
        },
        {
          "indexed": false,
          "internalType": "uint256",
          "name": "eventId",
          "type": "uint256"
        }
      ],
      "name": "ERotl",
      "type": "event"
    },
    {
      "anonymous": false,
      "inputs": [
        {
          "indexed": true,
          "internalType": "euint256",
          "name": "lhs",
          "type": "bytes32"
        },
        {
          "indexed": true,
          "internalType": "euint256",
          "name": "rhs",
          "type": "bytes32"
        },
        {
          "indexed": true,
          "internalType": "euint256",
          "name": "result",
          "type": "bytes32"
        },
        {
          "indexed": false,
          "internalType": "uint256",
          "name": "eventId",
          "type": "uint256"
        }
      ],
      "name": "ERotr",
      "type": "event"
    },
    {
      "anonymous": false,
      "inputs": [
        {
          "indexed": true,
          "internalType": "euint256",
          "name": "lhs",
          "type": "bytes32"
        },
        {
          "indexed": true,
          "internalType": "euint256",
          "name": "rhs",
          "type": "bytes32"
        },
        {
          "indexed": true,
          "internalType": "euint256",
          "name": "result",
          "type": "bytes32"
        },
        {
          "indexed": false,
          "internalType": "uint256",
          "name": "eventId",
          "type": "uint256"
        }
      ],
      "name": "EShl",
      "type": "event"
    },
    {
      "anonymous": false,
      "inputs": [
        {
          "indexed": true,
          "internalType": "euint256",
          "name": "lhs",
          "type": "bytes32"
        },
        {
          "indexed": true,
          "internalType": "euint256",
          "name": "rhs",
          "type": "bytes32"
        },
        {
          "indexed": true,
          "internalType": "euint256",
          "name": "result",
          "type": "bytes32"
        },
        {
          "indexed": false,
          "internalType": "uint256",
          "name": "eventId",
          "type": "uint256"
        }
      ],
      "name": "EShr",
      "type": "event"
    },
    {
      "anonymous": false,
      "inputs": [
        {
          "indexed": true,
          "internalType": "euint256",
          "name": "lhs",
          "type": "bytes32"
        },
        {
          "indexed": true,
          "internalType": "euint256",
          "name": "rhs",
          "type": "bytes32"
        },
        {
          "indexed": true,
          "internalType": "euint256",
          "name": "result",
          "type": "bytes32"
        },
        {
          "indexed": false,
          "internalType": "uint256",
          "name": "eventId",
          "type": "uint256"
        }
      ],
      "name": "ESub",
      "type": "event"
    },
    {
      "anonymous": false,
      "inputs": [
        {
          "indexed": false,
          "internalType": "uint64",
          "name": "version",
          "type": "uint64"
        }
      ],
      "name": "Initialized",
      "type": "event"
    },
    {
      "anonymous": false,
      "inputs": [
        {
          "indexed": true,
          "internalType": "bytes32",
          "name": "result",
          "type": "bytes32"
        },
        {
          "indexed": true,
          "internalType": "address",
          "name": "contractAddress",
          "type": "address"
        },
        {
          "indexed": true,
          "internalType": "address",
          "name": "user",
          "type": "address"
        },
        {
          "indexed": false,
          "internalType": "enum ETypes",
          "name": "inputType",
          "type": "uint8"
        },
        {
          "indexed": false,
          "internalType": "bytes",
          "name": "ciphertext",
          "type": "bytes"
        },
        {
          "indexed": false,
          "internalType": "uint256",
          "name": "eventId",
          "type": "uint256"
        }
      ],
      "name": "NewInput",
      "type": "event"
    },
    {
      "anonymous": false,
      "inputs": [
        {
          "indexed": true,
          "internalType": "address",
          "name": "previousOwner",
          "type": "address"
        },
        {
          "indexed": true,
          "internalType": "address",
          "name": "newOwner",
          "type": "address"
        }
      ],
      "name": "OwnershipTransferred",
      "type": "event"
    },
    {
      "anonymous": false,
      "inputs": [
        {
          "indexed": false,
          "internalType": "address",
          "name": "newPubkeyAddress",
          "type": "address"
        }
      ],
      "name": "PubkeyAddressChanged",
      "type": "event"
    },
    {
      "anonymous": false,
      "inputs": [
        {
          "indexed": true,
          "internalType": "uint256",
          "name": "requestId",
          "type": "uint256"
        },
        {
          "indexed": false,
          "internalType": "bool",
          "name": "success",
          "type": "bool"
        },
        {
          "indexed": false,
          "internalType": "uint256",
          "name": "eventId",
          "type": "uint256"
        }
      ],
      "name": "RequestFulfilled",
      "type": "event"
    },
    {
      "anonymous": false,
      "inputs": [
        {
          "indexed": true,
          "internalType": "bytes32",
          "name": "result",
          "type": "bytes32"
        },
        {
          "indexed": false,
          "internalType": "bytes32",
          "name": "plainTextBytes",
          "type": "bytes32"
        },
        {
          "indexed": false,
          "internalType": "enum ETypes",
          "name": "handleType",
          "type": "uint8"
        },
        {
          "indexed": false,
          "internalType": "uint256",
          "name": "eventId",
          "type": "uint256"
        }
      ],
      "name": "TrivialEncrypt",
      "type": "event"
    },
    {
      "anonymous": false,
      "inputs": [
        {
          "indexed": true,
          "internalType": "address",
          "name": "implementation",
          "type": "address"
        }
      ],
      "name": "Upgraded",
      "type": "event"
    },
    {
      "stateMutability": "nonpayable",
      "type": "fallback"
    },
    {
      "inputs": [],
      "name": "UPGRADE_INTERFACE_VERSION",
      "outputs": [
        {
          "internalType": "string",
          "name": "",
          "type": "string"
        }
      ],
      "stateMutability": "view",
      "type": "function"
    },
    {
      "inputs": [
        {
          "internalType": "bytes32",
          "name": "handle",
          "type": "bytes32"
        },
        {
          "internalType": "address",
          "name": "account",
          "type": "address"
        }
      ],
      "name": "allow",
      "outputs": [],
      "stateMutability": "nonpayable",
      "type": "function"
    },
    {
      "inputs": [
        {
          "internalType": "bytes32",
          "name": "handle",
          "type": "bytes32"
        },
        {
          "internalType": "address",
          "name": "account",
          "type": "address"
        }
      ],
      "name": "allowTransient",
      "outputs": [],
      "stateMutability": "nonpayable",
      "type": "function"
    },
    {
      "inputs": [
        {
          "internalType": "bytes32",
          "name": "handle",
          "type": "bytes32"
        },
        {
          "internalType": "address",
          "name": "account",
          "type": "address"
        }
      ],
      "name": "allowedTransient",
      "outputs": [
        {
          "internalType": "bool",
          "name": "",
          "type": "bool"
        }
      ],
      "stateMutability": "view",
      "type": "function"
    },
    {
      "inputs": [
        {
          "internalType": "bool",
          "name": "value",
          "type": "bool"
        }
      ],
      "name": "asEbool",
      "outputs": [
        {
          "internalType": "ebool",
          "name": "newEbool",
          "type": "bytes32"
        }
      ],
      "stateMutability": "nonpayable",
      "type": "function"
    },
    {
      "inputs": [
        {
          "internalType": "uint256",
          "name": "value",
          "type": "uint256"
        }
      ],
      "name": "asEuint256",
      "outputs": [
        {
          "internalType": "euint256",
          "name": "newEuint256",
          "type": "bytes32"
        }
      ],
      "stateMutability": "nonpayable",
      "type": "function"
    },
    {
      "inputs": [],
      "name": "cleanTransientStorage",
      "outputs": [],
      "stateMutability": "nonpayable",
      "type": "function"
    },
    {
      "inputs": [
        {
          "components": [
            {
              "internalType": "bytes32",
              "name": "abiEncodedResult",
              "type": "bytes32"
            },
            {
              "internalType": "uint256",
              "name": "requestId",
              "type": "uint256"
            }
          ],
          "internalType": "struct DecryptionResult",
          "name": "result",
          "type": "tuple"
        }
      ],
      "name": "decryptionResultDigest",
      "outputs": [
        {
          "internalType": "bytes32",
          "name": "",
          "type": "bytes32"
        }
      ],
      "stateMutability": "view",
      "type": "function"
    },
    {
      "inputs": [
        {
          "internalType": "euint256",
          "name": "lhs",
          "type": "bytes32"
        },
        {
          "internalType": "euint256",
          "name": "rhs",
          "type": "bytes32"
        }
      ],
      "name": "eAdd",
      "outputs": [
        {
          "internalType": "euint256",
          "name": "result",
          "type": "bytes32"
        }
      ],
      "stateMutability": "nonpayable",
      "type": "function"
    },
    {
      "inputs": [
        {
          "internalType": "bytes32",
          "name": "lhs",
          "type": "bytes32"
        },
        {
          "internalType": "bytes32",
          "name": "rhs",
          "type": "bytes32"
        }
      ],
      "name": "eBitAnd",
      "outputs": [
        {
          "internalType": "bytes32",
          "name": "result",
          "type": "bytes32"
        }
      ],
      "stateMutability": "nonpayable",
      "type": "function"
    },
    {
      "inputs": [
        {
          "internalType": "bytes32",
          "name": "lhs",
          "type": "bytes32"
        },
        {
          "internalType": "bytes32",
          "name": "rhs",
          "type": "bytes32"
        }
      ],
      "name": "eBitOr",
      "outputs": [
        {
          "internalType": "bytes32",
          "name": "result",
          "type": "bytes32"
        }
      ],
      "stateMutability": "nonpayable",
      "type": "function"
    },
    {
      "inputs": [
        {
          "internalType": "bytes32",
          "name": "lhs",
          "type": "bytes32"
        },
        {
          "internalType": "bytes32",
          "name": "rhs",
          "type": "bytes32"
        }
      ],
      "name": "eBitXor",
      "outputs": [
        {
          "internalType": "bytes32",
          "name": "result",
          "type": "bytes32"
        }
      ],
      "stateMutability": "nonpayable",
      "type": "function"
    },
    {
      "inputs": [
        {
          "internalType": "bytes32",
          "name": "ct",
          "type": "bytes32"
        },
        {
          "internalType": "enum ETypes",
          "name": "toType",
          "type": "uint8"
        }
      ],
      "name": "eCast",
      "outputs": [
        {
          "internalType": "bytes32",
          "name": "result",
          "type": "bytes32"
        }
      ],
      "stateMutability": "nonpayable",
      "type": "function"
    },
    {
      "inputs": [
        {
          "internalType": "euint256",
          "name": "lhs",
          "type": "bytes32"
        },
        {
          "internalType": "euint256",
          "name": "rhs",
          "type": "bytes32"
        }
      ],
      "name": "eDiv",
      "outputs": [
        {
          "internalType": "euint256",
          "name": "result",
          "type": "bytes32"
        }
      ],
      "stateMutability": "nonpayable",
      "type": "function"
    },
    {
      "inputs": [
        {
          "internalType": "euint256",
          "name": "lhs",
          "type": "bytes32"
        },
        {
          "internalType": "euint256",
          "name": "rhs",
          "type": "bytes32"
        }
      ],
      "name": "eEq",
      "outputs": [
        {
          "internalType": "ebool",
          "name": "result",
          "type": "bytes32"
        }
      ],
      "stateMutability": "nonpayable",
      "type": "function"
    },
    {
      "inputs": [
        {
          "internalType": "euint256",
          "name": "lhs",
          "type": "bytes32"
        },
        {
          "internalType": "euint256",
          "name": "rhs",
          "type": "bytes32"
        }
      ],
      "name": "eGe",
      "outputs": [
        {
          "internalType": "ebool",
          "name": "result",
          "type": "bytes32"
        }
      ],
      "stateMutability": "nonpayable",
      "type": "function"
    },
    {
      "inputs": [
        {
          "internalType": "euint256",
          "name": "lhs",
          "type": "bytes32"
        },
        {
          "internalType": "euint256",
          "name": "rhs",
          "type": "bytes32"
        }
      ],
      "name": "eGt",
      "outputs": [
        {
          "internalType": "ebool",
          "name": "result",
          "type": "bytes32"
        }
      ],
      "stateMutability": "nonpayable",
      "type": "function"
    },
    {
      "inputs": [
        {
          "internalType": "ebool",
          "name": "control",
          "type": "bytes32"
        },
        {
          "internalType": "bytes32",
          "name": "ifTrue",
          "type": "bytes32"
        },
        {
          "internalType": "bytes32",
          "name": "ifFalse",
          "type": "bytes32"
        }
      ],
      "name": "eIfThenElse",
      "outputs": [
        {
          "internalType": "bytes32",
          "name": "result",
          "type": "bytes32"
        }
      ],
      "stateMutability": "nonpayable",
      "type": "function"
    },
    {
      "inputs": [
        {
          "internalType": "euint256",
          "name": "lhs",
          "type": "bytes32"
        },
        {
          "internalType": "euint256",
          "name": "rhs",
          "type": "bytes32"
        }
      ],
      "name": "eLe",
      "outputs": [
        {
          "internalType": "ebool",
          "name": "result",
          "type": "bytes32"
        }
      ],
      "stateMutability": "nonpayable",
      "type": "function"
    },
    {
      "inputs": [
        {
          "internalType": "euint256",
          "name": "lhs",
          "type": "bytes32"
        },
        {
          "internalType": "euint256",
          "name": "rhs",
          "type": "bytes32"
        }
      ],
      "name": "eLt",
      "outputs": [
        {
          "internalType": "ebool",
          "name": "result",
          "type": "bytes32"
        }
      ],
      "stateMutability": "nonpayable",
      "type": "function"
    },
    {
      "inputs": [
        {
          "internalType": "euint256",
          "name": "lhs",
          "type": "bytes32"
        },
        {
          "internalType": "euint256",
          "name": "rhs",
          "type": "bytes32"
        }
      ],
      "name": "eMax",
      "outputs": [
        {
          "internalType": "euint256",
          "name": "result",
          "type": "bytes32"
        }
      ],
      "stateMutability": "nonpayable",
      "type": "function"
    },
    {
      "inputs": [
        {
          "internalType": "euint256",
          "name": "lhs",
          "type": "bytes32"
        },
        {
          "internalType": "euint256",
          "name": "rhs",
          "type": "bytes32"
        }
      ],
      "name": "eMin",
      "outputs": [
        {
          "internalType": "euint256",
          "name": "result",
          "type": "bytes32"
        }
      ],
      "stateMutability": "nonpayable",
      "type": "function"
    },
    {
      "inputs": [
        {
          "internalType": "euint256",
          "name": "lhs",
          "type": "bytes32"
        },
        {
          "internalType": "euint256",
          "name": "rhs",
          "type": "bytes32"
        }
      ],
      "name": "eMul",
      "outputs": [
        {
          "internalType": "euint256",
          "name": "result",
          "type": "bytes32"
        }
      ],
      "stateMutability": "nonpayable",
      "type": "function"
    },
    {
      "inputs": [
        {
          "internalType": "euint256",
          "name": "lhs",
          "type": "bytes32"
        },
        {
          "internalType": "euint256",
          "name": "rhs",
          "type": "bytes32"
        }
      ],
      "name": "eNe",
      "outputs": [
        {
          "internalType": "ebool",
          "name": "result",
          "type": "bytes32"
        }
      ],
      "stateMutability": "nonpayable",
      "type": "function"
    },
    {
      "inputs": [
        {
          "internalType": "ebool",
          "name": "operand",
          "type": "bytes32"
        }
      ],
      "name": "eNot",
      "outputs": [
        {
          "internalType": "ebool",
          "name": "result",
          "type": "bytes32"
        }
      ],
      "stateMutability": "nonpayable",
      "type": "function"
    },
    {
      "inputs": [
        {
          "internalType": "enum ETypes",
          "name": "randType",
          "type": "uint8"
        }
      ],
      "name": "eRand",
      "outputs": [
        {
          "internalType": "bytes32",
          "name": "result",
          "type": "bytes32"
        }
      ],
      "stateMutability": "nonpayable",
      "type": "function"
    },
    {
      "inputs": [
        {
          "internalType": "bytes32",
          "name": "upperBound",
          "type": "bytes32"
        },
        {
          "internalType": "enum ETypes",
          "name": "randType",
          "type": "uint8"
        }
      ],
      "name": "eRandBounded",
      "outputs": [
        {
          "internalType": "bytes32",
          "name": "result",
          "type": "bytes32"
        }
      ],
      "stateMutability": "nonpayable",
      "type": "function"
    },
    {
      "inputs": [
        {
          "internalType": "euint256",
          "name": "lhs",
          "type": "bytes32"
        },
        {
          "internalType": "euint256",
          "name": "rhs",
          "type": "bytes32"
        }
      ],
      "name": "eRem",
      "outputs": [
        {
          "internalType": "euint256",
          "name": "result",
          "type": "bytes32"
        }
      ],
      "stateMutability": "nonpayable",
      "type": "function"
    },
    {
      "inputs": [
        {
          "internalType": "euint256",
          "name": "lhs",
          "type": "bytes32"
        },
        {
          "internalType": "euint256",
          "name": "rhs",
          "type": "bytes32"
        }
      ],
      "name": "eRotl",
      "outputs": [
        {
          "internalType": "euint256",
          "name": "result",
          "type": "bytes32"
        }
      ],
      "stateMutability": "nonpayable",
      "type": "function"
    },
    {
      "inputs": [
        {
          "internalType": "euint256",
          "name": "lhs",
          "type": "bytes32"
        },
        {
          "internalType": "euint256",
          "name": "rhs",
          "type": "bytes32"
        }
      ],
      "name": "eRotr",
      "outputs": [
        {
          "internalType": "euint256",
          "name": "result",
          "type": "bytes32"
        }
      ],
      "stateMutability": "nonpayable",
      "type": "function"
    },
    {
      "inputs": [
        {
          "internalType": "euint256",
          "name": "lhs",
          "type": "bytes32"
        },
        {
          "internalType": "euint256",
          "name": "rhs",
          "type": "bytes32"
        }
      ],
      "name": "eShl",
      "outputs": [
        {
          "internalType": "euint256",
          "name": "result",
          "type": "bytes32"
        }
      ],
      "stateMutability": "nonpayable",
      "type": "function"
    },
    {
      "inputs": [
        {
          "internalType": "euint256",
          "name": "lhs",
          "type": "bytes32"
        },
        {
          "internalType": "euint256",
          "name": "rhs",
          "type": "bytes32"
        }
      ],
      "name": "eShr",
      "outputs": [
        {
          "internalType": "euint256",
          "name": "result",
          "type": "bytes32"
        }
      ],
      "stateMutability": "nonpayable",
      "type": "function"
    },
    {
      "inputs": [
        {
          "internalType": "euint256",
          "name": "lhs",
          "type": "bytes32"
        },
        {
          "internalType": "euint256",
          "name": "rhs",
          "type": "bytes32"
        }
      ],
      "name": "eSub",
      "outputs": [
        {
          "internalType": "euint256",
          "name": "result",
          "type": "bytes32"
        }
      ],
      "stateMutability": "nonpayable",
      "type": "function"
    },
    {
      "inputs": [
        {
          "internalType": "address",
          "name": "newPubkeyAddress",
          "type": "address"
        }
      ],
      "name": "editPubkeyAddress",
      "outputs": [],
      "stateMutability": "nonpayable",
      "type": "function"
    },
    {
      "inputs": [],
      "name": "eip712Domain",
      "outputs": [
        {
          "internalType": "bytes1",
          "name": "fields",
          "type": "bytes1"
        },
        {
          "internalType": "string",
          "name": "name",
          "type": "string"
        },
        {
          "internalType": "string",
          "name": "version",
          "type": "string"
        },
        {
          "internalType": "uint256",
          "name": "chainId",
          "type": "uint256"
        },
        {
          "internalType": "address",
          "name": "verifyingContract",
          "type": "address"
        },
        {
          "internalType": "bytes32",
          "name": "salt",
          "type": "bytes32"
        },
        {
          "internalType": "uint256[]",
          "name": "extensions",
          "type": "uint256[]"
        }
      ],
      "stateMutability": "view",
      "type": "function"
    },
    {
      "inputs": [
        {
          "components": [
            {
              "internalType": "bytes32",
              "name": "abiEncodedResult",
              "type": "bytes32"
            },
            {
              "internalType": "uint256",
              "name": "requestId",
              "type": "uint256"
            }
          ],
          "internalType": "struct DecryptionResult",
          "name": "result",
          "type": "tuple"
        },
        {
          "internalType": "bytes",
          "name": "",
          "type": "bytes"
        }
      ],
      "name": "fulfillRequest",
      "outputs": [],
      "stateMutability": "nonpayable",
      "type": "function"
    },
    {
      "inputs": [],
      "name": "getEventCounter",
      "outputs": [
        {
          "internalType": "uint256",
          "name": "",
          "type": "uint256"
        }
      ],
      "stateMutability": "view",
      "type": "function"
    },
    {
      "inputs": [
        {
          "internalType": "bytes",
          "name": "ciphertext",
          "type": "bytes"
        },
        {
          "internalType": "address",
          "name": "user",
          "type": "address"
        },
        {
          "internalType": "address",
          "name": "contractAddress",
          "type": "address"
        },
        {
          "internalType": "enum ETypes",
          "name": "inputType",
          "type": "uint8"
        }
      ],
      "name": "getInputHandle",
      "outputs": [
        {
          "internalType": "bytes32",
          "name": "generatedHandle",
          "type": "bytes32"
        }
      ],
      "stateMutability": "view",
      "type": "function"
    },
    {
      "inputs": [],
      "name": "getName",
      "outputs": [
        {
          "internalType": "string",
          "name": "",
          "type": "string"
        }
      ],
      "stateMutability": "view",
      "type": "function"
    },
    {
      "inputs": [
        {
          "internalType": "enum EOps",
          "name": "op",
          "type": "uint8"
        },
        {
          "internalType": "enum ETypes",
          "name": "returnType",
          "type": "uint8"
        },
        {
          "internalType": "bytes32",
          "name": "value",
          "type": "bytes32"
        }
      ],
      "name": "getOpResultHandle",
      "outputs": [
        {
          "internalType": "bytes32",
          "name": "generatedHandle",
          "type": "bytes32"
        }
      ],
      "stateMutability": "pure",
      "type": "function"
    },
    {
      "inputs": [
        {
          "internalType": "enum EOps",
          "name": "op",
          "type": "uint8"
        },
        {
          "internalType": "enum ETypes",
          "name": "returnType",
          "type": "uint8"
        },
        {
          "internalType": "bytes32",
          "name": "inputA",
          "type": "bytes32"
        },
        {
          "internalType": "bytes32",
          "name": "inputB",
          "type": "bytes32"
        },
        {
          "internalType": "bytes32",
          "name": "inputC",
          "type": "bytes32"
        }
      ],
      "name": "getOpResultHandle",
      "outputs": [
        {
          "internalType": "bytes32",
          "name": "generatedHandle",
          "type": "bytes32"
        }
      ],
      "stateMutability": "pure",
      "type": "function"
    },
    {
      "inputs": [
        {
          "internalType": "enum EOps",
          "name": "op",
          "type": "uint8"
        },
        {
          "internalType": "enum ETypes",
          "name": "returnType",
          "type": "uint8"
        },
        {
          "internalType": "uint256",
          "name": "counter",
          "type": "uint256"
        },
        {
          "internalType": "bytes32",
          "name": "upperBound",
          "type": "bytes32"
        }
      ],
      "name": "getOpResultHandle",
      "outputs": [
        {
          "internalType": "bytes32",
          "name": "generatedHandle",
          "type": "bytes32"
        }
      ],
      "stateMutability": "pure",
      "type": "function"
    },
    {
      "inputs": [
        {
          "internalType": "enum EOps",
          "name": "op",
          "type": "uint8"
        },
        {
          "internalType": "enum ETypes",
          "name": "returnType",
          "type": "uint8"
        },
        {
          "internalType": "bytes32",
          "name": "lhs",
          "type": "bytes32"
        },
        {
          "internalType": "bytes32",
          "name": "rhs",
          "type": "bytes32"
        }
      ],
      "name": "getOpResultHandle",
      "outputs": [
        {
          "internalType": "bytes32",
          "name": "generatedHandle",
          "type": "bytes32"
        }
      ],
      "stateMutability": "pure",
      "type": "function"
    },
    {
      "inputs": [
        {
          "internalType": "uint256",
          "name": "requestId",
          "type": "uint256"
        }
      ],
      "name": "getRequest",
      "outputs": [
        {
          "components": [
            {
              "internalType": "uint256",
              "name": "maxTimestamp",
              "type": "uint256"
            },
            {
              "internalType": "address",
              "name": "callbackContract",
              "type": "address"
            },
            {
              "internalType": "bytes4",
              "name": "callbackSelector",
              "type": "bytes4"
            },
            {
              "internalType": "bool",
              "name": "fulfilled",
              "type": "bool"
            },
            {
              "internalType": "bytes",
              "name": "data",
              "type": "bytes"
            }
          ],
          "internalType": "struct Request",
          "name": "",
          "type": "tuple"
        }
      ],
      "stateMutability": "view",
      "type": "function"
    },
    {
      "inputs": [],
      "name": "getRequestIdCounter",
      "outputs": [
        {
          "internalType": "uint256",
          "name": "",
          "type": "uint256"
        }
      ],
      "stateMutability": "view",
      "type": "function"
    },
    {
      "inputs": [
        {
          "internalType": "bytes32",
          "name": "plaintextBytes",
          "type": "bytes32"
        },
        {
          "internalType": "enum ETypes",
          "name": "handleType",
          "type": "uint8"
        }
      ],
      "name": "getTrivialEncryptHandle",
      "outputs": [
        {
          "internalType": "bytes32",
          "name": "generatedHandle",
          "type": "bytes32"
        }
      ],
      "stateMutability": "view",
      "type": "function"
    },
    {
      "inputs": [],
      "name": "getVersion",
      "outputs": [
        {
          "internalType": "string",
          "name": "",
          "type": "string"
        }
      ],
      "stateMutability": "view",
      "type": "function"
    },
    {
      "inputs": [],
      "name": "getVersionedName",
      "outputs": [
        {
          "internalType": "string",
          "name": "",
          "type": "string"
        }
      ],
      "stateMutability": "view",
      "type": "function"
    },
    {
      "inputs": [
        {
          "internalType": "address",
          "name": "owner",
          "type": "address"
        }
      ],
      "name": "initialize",
      "outputs": [],
      "stateMutability": "nonpayable",
      "type": "function"
    },
    {
      "inputs": [
        {
          "internalType": "bytes32",
          "name": "handle",
          "type": "bytes32"
        },
        {
          "internalType": "address",
          "name": "account",
          "type": "address"
        }
      ],
      "name": "isAllowed",
      "outputs": [
        {
          "internalType": "bool",
          "name": "",
          "type": "bool"
        }
      ],
      "stateMutability": "view",
      "type": "function"
    },
    {
      "inputs": [
        {
          "internalType": "bytes32",
          "name": "hash",
          "type": "bytes32"
        },
        {
          "internalType": "bytes",
          "name": "signature",
          "type": "bytes"
        }
      ],
      "name": "isValidSignature",
      "outputs": [
        {
          "internalType": "bool",
          "name": "",
          "type": "bool"
        }
      ],
      "stateMutability": "view",
      "type": "function"
    },
    {
      "inputs": [],
      "name": "majorVersion",
      "outputs": [
        {
          "internalType": "uint8",
          "name": "",
          "type": "uint8"
        }
      ],
      "stateMutability": "view",
      "type": "function"
    },
    {
      "inputs": [],
      "name": "minorVersion",
      "outputs": [
        {
          "internalType": "uint8",
          "name": "",
          "type": "uint8"
        }
      ],
      "stateMutability": "view",
      "type": "function"
    },
    {
      "inputs": [
        {
          "internalType": "bytes",
          "name": "ciphertext",
          "type": "bytes"
        },
        {
          "internalType": "address",
          "name": "user",
          "type": "address"
        }
      ],
      "name": "newEbool",
      "outputs": [
        {
          "internalType": "ebool",
          "name": "newValue",
          "type": "bytes32"
        }
      ],
      "stateMutability": "nonpayable",
      "type": "function"
    },
    {
      "inputs": [
        {
          "internalType": "bytes",
          "name": "ciphertext",
          "type": "bytes"
        },
        {
          "internalType": "address",
          "name": "user",
          "type": "address"
        }
      ],
      "name": "newEuint256",
      "outputs": [
        {
          "internalType": "euint256",
          "name": "newValue",
          "type": "bytes32"
        }
      ],
      "stateMutability": "nonpayable",
      "type": "function"
    },
    {
      "inputs": [],
      "name": "opSignerPubkeyAddress",
      "outputs": [
        {
          "internalType": "address",
          "name": "",
          "type": "address"
        }
      ],
      "stateMutability": "view",
      "type": "function"
    },
    {
      "inputs": [],
      "name": "owner",
      "outputs": [
        {
          "internalType": "address",
          "name": "",
          "type": "address"
        }
      ],
      "stateMutability": "view",
      "type": "function"
    },
    {
      "inputs": [],
      "name": "patchVersion",
      "outputs": [
        {
          "internalType": "uint8",
          "name": "",
          "type": "uint8"
        }
      ],
      "stateMutability": "view",
      "type": "function"
    },
    {
      "inputs": [
        {
          "internalType": "bytes32",
          "name": "handle",
          "type": "bytes32"
        },
        {
          "internalType": "address",
          "name": "account",
          "type": "address"
        }
      ],
      "name": "persistAllowed",
      "outputs": [
        {
          "internalType": "bool",
          "name": "",
          "type": "bool"
        }
      ],
      "stateMutability": "view",
      "type": "function"
    },
    {
      "inputs": [],
      "name": "proxiableUUID",
      "outputs": [
        {
          "internalType": "bytes32",
          "name": "",
          "type": "bytes32"
        }
      ],
      "stateMutability": "view",
      "type": "function"
    },
    {
      "inputs": [],
      "name": "renounceOwnership",
      "outputs": [],
      "stateMutability": "nonpayable",
      "type": "function"
    },
    {
      "inputs": [
        {
          "internalType": "bytes4",
          "name": "callbackSelector",
          "type": "bytes4"
        },
        {
          "internalType": "uint256",
          "name": "maxTimestamp",
          "type": "uint256"
        },
        {
          "internalType": "bytes32",
          "name": "handle",
          "type": "bytes32"
        },
        {
          "internalType": "bytes",
          "name": "data",
          "type": "bytes"
        }
      ],
      "name": "requestDecryption",
      "outputs": [
        {
          "internalType": "uint256",
          "name": "requestId",
          "type": "uint256"
        }
      ],
      "stateMutability": "nonpayable",
      "type": "function"
    },
    {
      "inputs": [],
      "name": "salt",
      "outputs": [
        {
          "internalType": "bytes32",
          "name": "",
          "type": "bytes32"
        }
      ],
      "stateMutability": "view",
      "type": "function"
    },
    {
      "inputs": [
        {
          "internalType": "address",
          "name": "newOwner",
          "type": "address"
        }
      ],
      "name": "transferOwnership",
      "outputs": [],
      "stateMutability": "nonpayable",
      "type": "function"
    },
    {
      "inputs": [
        {
          "internalType": "address",
          "name": "newImplementation",
          "type": "address"
        },
        {
          "internalType": "bytes",
          "name": "data",
          "type": "bytes"
        }
      ],
      "name": "upgradeToAndCall",
      "outputs": [],
      "stateMutability": "payable",
      "type": "function"
    }
  ],
  "bytecode": "0x6102206040523061016052348015610015575f5ffd5b506040516143dc3803806143dc8339810160408190526100349161038e565b5f6001601d836040518060400160405280600d81526020016c696e636f4c696768746e696e6760981b8152508061007286868661015660201b60201c565b61007d8260016101a6565b6101205261008c8160026101a6565b61014052815160208084019190912060e052815190820120610100524660a05261011860e05161010051604080517f8b73c3c69bb8fe3d512ecc4cf759cc79239f7b179b0ffacaa9a75d522b39400f60208201529081019290925260608201524660808201523060a08201525f9060c00160405160208183030381529060405280519060200120905090565b60805250503060c05260ff808616610180528481166101a05283166101c0526101e0829052610146816101d8565b61020052506105a5945050505050565b606061016460ff851661021e565b61017060ff851661021e565b61017c60ff851661021e565b60405160200161018e939291906103bc565b60405160208183030381529060405290509392505050565b5f6020835110156101c1576101ba836101d8565b90506101d2565b816101cc8482610493565b5060ff90505b92915050565b5f5f829050601f8151111561020b578260405163305a27a960e01b8152600401610202919061054d565b60405180910390fd5b805161021682610582565b179392505050565b60605f61022a836102ad565b60010190505f816001600160401b03811115610248576102486103fb565b6040519080825280601f01601f191660200182016040528015610272576020820181803683370190505b5090508181016020015b5f19016f181899199a1a9b1b9c1cb0b131b232b360811b600a86061a8153600a850494508461027c57509392505050565b5f807a184f03e93ff9f4daa797ed6e38ed64bf6a1f01000000000000000083106102f5577a184f03e93ff9f4daa797ed6e38ed64bf6a1f010000000000000000830492506040015b6d04ee2d6d415b85acef81000000008310610321576d04ee2d6d415b85acef8100000000830492506020015b662386f26fc10000831061033f57662386f26fc10000830492506010015b6305f5e1008310610357576305f5e100830492506008015b612710831061036b57612710830492506004015b6064831061037d576064830492506002015b600a83106101d25760010192915050565b5f6020828403121561039e575f5ffd5b5051919050565b5f81518060208401855e5f93019283525090919050565b5f6103c782866103a5565b605f60f81b81526103db60018201866103a5565b9050605f60f81b81526103f160018201856103a5565b9695505050505050565b634e487b7160e01b5f52604160045260245ffd5b600181811c9082168061042357607f821691505b60208210810361044157634e487b7160e01b5f52602260045260245ffd5b50919050565b601f82111561048e57805f5260205f20601f840160051c8101602085101561046c5750805b601f840160051c820191505b8181101561048b575f8155600101610478565b50505b505050565b81516001600160401b038111156104ac576104ac6103fb565b6104c0816104ba845461040f565b84610447565b6020601f8211600181146104f2575f83156104db5750848201515b5f19600385901b1c1916600184901b17845561048b565b5f84815260208120601f198516915b828110156105215787850151825560209485019460019092019101610501565b508482101561053e57868401515f19600387901b60f8161c191681555b50505050600190811b01905550565b602081525f82518060208401528060208501604085015e5f604082850101526040601f19601f83011684010191505092915050565b80516020808301519190811015610441575f1960209190910360031b1b16919050565b60805160a05160c05160e05161010051610120516101405161016051610180516101a0516101c0516101e05161020051613d8061065c5f395f610d1f01525f81816109bd0152611ec901525f81816107bc0152610ca601525f81816107120152610c8501525f81816108ef0152610c6401525f818161261801528181612641015261278b01525f61290a01525f6128dd01525f612da801525f612d8001525f612cdb01525f612d0501525f612d2f0152613d805ff3fe6080604052600436106103cd575f3560e01c8063883285e0116101fc578063c3d3bf9c11610117578063e25800ab116100aa578063f2fde38b11610079578063f2fde38b14610b74578063f3ff21f214610b93578063f4f9966b14610bb2578063f9d75ac914610a87578063fa71e91d14610bd1576103cd565b8063e25800ab14610af8578063e7245a4a14610b17578063e9be8faf14610b36578063f106b99a14610b55576103cd565b8063d562de54116100e6578063d562de5414610a87578063d9d017f614610aa6578063ddee96ef14610ac5578063de195e2d14610ad9576103cd565b8063c3d3bf9c146109fe578063c4d66de814610a1d578063c58343ef14610a3c578063c948f8ce14610a68576103cd565b8063af05a5c51161018f578063b9496b621161015e578063b9496b621461096e578063ba76f2a91461098d578063bfa0b133146109ac578063c0516afa146109df576103cd565b8063af05a5c5146108de578063b5738c2514610911578063b887d7e314610930578063b8b2ab4b1461094f576103cd565b806394fee648116101cb57806394fee648146108675780639db7637f1461087b578063a8c3dc9e1461088f578063ad3cb1cc146108ae576103cd565b8063883285e0146107de5780638da5cb5b146107fd5780638e40528c146108295780638ff94ab414610848576103cd565b806352a532d3116102ec578063715018a61161027f57806374b79a5a1161024e57806374b79a5a1461074657806382027b6d1461076557806384b0196e1461078457806385464ae5146107ab576103cd565b8063715018a6146106af57806371c0803a146106c3578063725e1da5146106e25780637436f3dc14610701576103cd565b80635d7d5397116102bb5780635d7d53971461063357806364750c471461065257806367e7a37e146106715780636a27be8514610690576103cd565b806352a532d3146105c257806352d1902d146105e157806356af8c7c146105f55780635992845414610614576103cd565b8063381d23f6116103645780633e395cec116103335780633e395cec146105525780633ea46639146105715780634b2ded1f146105905780634f1ef286146105af576103cd565b8063381d23f6146104e15780633912562e146105005780633c82a9781461051f5780633cd8fdac14610533576103cd565b80631e2f86ba116103a05780631e2f86ba1461047057806321c8769e1461048f578063239f7112146104ae57806335334c23146104cd576103cd565b806305f6c427146103da5780630d8e6e2c1461040c5780631626ba7e1461042d57806317d7de7c1461045c575b3480156103d8575f5ffd5b005b3480156103e5575f5ffd5b506103f96103f436600461326a565b610bf0565b6040519081526020015b60405180910390f35b348015610417575f5ffd5b50610420610c5d565b60405161040391906132b8565b348015610438575f5ffd5b5061044c610447366004613367565b610ccf565b6040519015158152602001610403565b348015610467575f5ffd5b50610420610d18565b34801561047b575f5ffd5b5061044c61048a3660046133c5565b610d43565b34801561049a575f5ffd5b506103f96104a936600461326a565b610d8c565b3480156104b9575f5ffd5b506103f96104c836600461326a565b610de1565b3480156104d8575f5ffd5b506103d8610e36565b3480156104ec575f5ffd5b506103d86104fb3660046133ef565b610e5f565b34801561050b575f5ffd5b506103f961051a366004613454565b610edb565b34801561052a575f5ffd5b506103f9610f47565b34801561053e575f5ffd5b506103f961054d36600461347c565b610f70565b34801561055d575f5ffd5b506103d861056c3660046133c5565b61102d565b34801561057c575f5ffd5b506103f961058b36600461326a565b611076565b34801561059b575f5ffd5b506103f96105aa36600461326a565b6110cb565b6103d86105bd36600461349d565b611120565b3480156105cd575f5ffd5b506103f96105dc36600461326a565b61113b565b3480156105ec575f5ffd5b506103f9611190565b348015610600575f5ffd5b506103f961060f36600461326a565b6111ab565b34801561061f575f5ffd5b506103f961062e3660046134d1565b61125d565b34801561063e575f5ffd5b506103f961064d3660046134ea565b611303565b34801561065d575f5ffd5b506103f961066c366004613517565b611329565b34801561067c575f5ffd5b506103f961068b366004613551565b611364565b34801561069b575f5ffd5b506103f96106aa366004613551565b611370565b3480156106ba575f5ffd5b506103d86113c2565b3480156106ce575f5ffd5b506103f96106dd36600461326a565b6113d5565b3480156106ed575f5ffd5b506103f96106fc36600461326a565b611429565b34801561070c575f5ffd5b506107347f000000000000000000000000000000000000000000000000000000000000000081565b60405160ff9091168152602001610403565b348015610751575f5ffd5b5061044c6107603660046133c5565b61147d565b348015610770575f5ffd5b5061044c61077f3660046133c5565b6114cb565b34801561078f575f5ffd5b506107986114e6565b6040516104039796959493929190613568565b3480156107b6575f5ffd5b506107347f000000000000000000000000000000000000000000000000000000000000000081565b3480156107e9575f5ffd5b506103d86107f83660046135fe565b611528565b348015610808575f5ffd5b50610811611719565b6040516001600160a01b039091168152602001610403565b348015610834575f5ffd5b506103f961084336600461326a565b611747565b348015610853575f5ffd5b506103f961086236600461326a565b61179c565b348015610872575f5ffd5b506103f96117f0565b348015610886575f5ffd5b50610811611804565b34801561089a575f5ffd5b506103f96108a936600461347c565b611836565b3480156108b9575f5ffd5b50610420604051806040016040528060058152602001640352e302e360dc1b81525081565b3480156108e9575f5ffd5b506107347f000000000000000000000000000000000000000000000000000000000000000081565b34801561091c575f5ffd5b506103f961092b366004613633565b611891565b34801561093b575f5ffd5b506103f961094a36600461326a565b6118d2565b34801561095a575f5ffd5b506103f961096936600461367c565b611984565b348015610979575f5ffd5b506103d86109883660046133c5565b611990565b348015610998575f5ffd5b506103f96109a736600461367c565b6119d9565b3480156109b7575f5ffd5b506103f97f000000000000000000000000000000000000000000000000000000000000000081565b3480156109ea575f5ffd5b506103f96109f936600461326a565b6119e6565b348015610a09575f5ffd5b506103f9610a183660046136bd565b611a3a565b348015610a28575f5ffd5b506103d8610a373660046133ef565b611ae5565b348015610a47575f5ffd5b50610a5b610a56366004613551565b611bf1565b6040516104039190613727565b348015610a73575f5ffd5b506103f9610a8236600461326a565b611d28565b348015610a92575f5ffd5b506103f9610aa136600461377c565b611dda565b348015610ab1575f5ffd5b506103f9610ac03660046137bb565b611e18565b348015610ad0575f5ffd5b50610420611ebc565b348015610ae4575f5ffd5b506103f9610af336600461326a565b611f2f565b348015610b03575f5ffd5b506103f9610b1236600461326a565b611f84565b348015610b22575f5ffd5b506103f9610b3136600461326a565b611fd8565b348015610b41575f5ffd5b506103f9610b5036600461326a565b61202d565b348015610b60575f5ffd5b506103f9610b6f36600461347c565b612081565b348015610b7f575f5ffd5b506103d8610b8e3660046133ef565b61211f565b348015610b9e575f5ffd5b506103f9610bad3660046137e4565b61215c565b348015610bbd575f5ffd5b506103f9610bcc36600461326a565b6122c0565b348015610bdc575f5ffd5b506103f9610beb36600461326a565b612314565b5f8282610bfe826008612369565b610c09816008612369565b610c16600f5f8787612406565b92508284867fc85f019fe65ed84e35561d59944ff3ebf5dfbd1233a064701a03cd650aaa5b70610c4461241f565b60405190815260200160405180910390a4505092915050565b6060610cca7f00000000000000000000000000000000000000000000000000000000000000007f00000000000000000000000000000000000000000000000000000000000000007f0000000000000000000000000000000000000000000000000000000000000000612457565b905090565b5f7fe7c23215b238bd513ed25539b22c0956fce7d1f5b5dc1096bd872c82e2245086546001600160a01b0316610d0584846124a7565b6001600160a01b03161490505b92915050565b6060610cca7f00000000000000000000000000000000000000000000000000000000000000006124cf565b5f9182527fea597c75836e9e4ed72237a0e6389c322017ee3f12368962289c35586a1d2598602090815260408084206001600160a01b0393909316845291905290205460ff1690565b5f8282610d9a826008612369565b610da5816008612369565b610db3600260088787612406565b92508284867f584ccd8f0c3dc19afdc6abaf364b5fe189d78edcc5415841d040b9e3a7038fa1610c4461241f565b5f8282610def826008612369565b610dfa816008612369565b610e08600960088787612406565b92508284867fc624068c3cc9d68ac1dfb859360f784b6bff86ea719eebd8ed5597a0f7fab962610c4461241f565b5f5c5f5f5d6001908101905b81811015610e5b57805c5f825d5f815d50600101610e42565b5050565b610e6761250c565b807fe7c23215b238bd513ed25539b22c0956fce7d1f5b5dc1096bd872c82e224508680546001600160a01b0319166001600160a01b0392831617905560405190821681527fdf62c747bf705432e1ba4993bbed220169a7d30fa94ddf587f87ebf2944b5eab9060200160405180910390a150565b5f610d127fe414d4aecbda706ee288437c4508696228f9b3ca6f58676dd80a83ef51cceed3835f01518460200151604051602001610f2c939291909283526020830191909152604082015260600190565b6040516020818303038152906040528051906020012061253e565b5f7f424e67de01535191ae441dac30ebc840d30f78dda500964a3abe35b40c86270c5b54919050565b5f610f7a8261256a565b8290610fa357604051631136f9f360e11b8152600401610f9a9190613876565b60405180910390fd5b50610faf836008612369565b5f8054610fe191601b91859180610fc583613884565b909155508686600b811115610fdc57610fdc61384e565b6125a0565b905080835f547f6e799a27f1cbd01a431a624b25fc68bb220eceb4be9478d643a62ca5c6b1262b8561101161241f565b60405161101f9291906138a8565b60405180910390a492915050565b61103782336114cb565b8233909161106a57604051634a995a5b60e11b815260048101929092526001600160a01b03166024820152604401610f9a565b5050610e5b82826125b6565b5f8282611084826008612369565b61108f816008612369565b61109d601260088787612406565b92508284867f916d7264d60c2e1c2dadf95876b6619f97e75044b3ff9e12c1575a4b8f6f7c41610c4461241f565b5f82826110d9826008612369565b6110e4816008612369565b6110f2600460088787612406565b92508284867f05ba0a91a7a9fb5694c8585b4524748710c4fd8d8161a36f6438e992a66938c8610c4461241f565b61112861260d565b6111318261269b565b610e5b82826126bf565b5f8282611149826008612369565b611154816008612369565b611162600360088787612406565b92508284867fb338556f79cd1c7cc41da1198419213d940cfa5b9b5e4026b0db14ed5f5c1d7b610c4461241f565b5f611199612780565b505f516020613d0b5f395f51905f5290565b5f5f6111b6846127c9565b90505f6111c2846127c9565b90506111ce8583612369565b6111d88482612369565b80600b8111156111ea576111ea61384e565b82600b8111156111fc576111fc61384e565b14828290916112205760405163356f777560e01b8152600401610f9a9291906138c3565b505061122f6006838787612406565b92508284867f03da418fb5a1edbcc289c75a571a7ac5a18ebb7938fd8b117a80cc52a6656fe4610c4461241f565b5f6112678261256a565b829061128757604051631136f9f360e11b8152600401610f9a9190613876565b505f80546112b991601a9185918061129e83613884565b9091555085600b8111156112b4576112b461384e565b612406565b9050805f547f1f39c455902f45a36b452dc0fe4d21ed5c7655e6ac79e52942d7f1d363c176b1846112e861241f565b6040516112f69291906138a8565b60405180910390a3919050565b5f5f82611310575f611313565b60015b60ff169050611322815f6127e3565b9392505050565b5f61135c84836040516020016113409291906138f5565b6040516020818303038152906040528051906020012084612843565b949350505050565b5f610d128260086127e3565b5f61137b825f612369565b61138760155f8461284e565b905080827fab89d8fc2490af977f2c8db1c7826880dbeec67c16e0cbff548eb4ac4b1a0e986113b461241f565b6040519081526020016112f6565b6113ca61250c565b6113d35f612866565b565b5f82826113e3826008612369565b6113ee816008612369565b6113fb6008808787612406565b92508284867f99ece4883276939d8239ffc26785f08238c903a8432248757baa075684c18a30610c4461241f565b5f8282611437826008612369565b611442816008612369565b61144f60105f8787612406565b92508284867f1c6ba1ce3ec4acb3ea629d803d4201117c49fb503eab53da12f69e2acf5b6de5610c4461241f565b5f5f5f84846040516020016114a992919091825260601b6001600160601b031916602082015260340190565b60408051808303601f1901815291905280516020909101205c95945050505050565b5f6114d6838361147d565b8061132257506113228383610d43565b5f6060805f5f5f60606114f76128d6565b6114ff612903565b604080515f80825260208201909252600f60f81b9b939a50919850469750309650945092509050565b6020828101515f9081527f198290ce05c8f5de5b03bb79e2f2bb4462725128ca87b744942e718d1308f0ed9091526040902060018101545f516020613d2b5f395f51905f529190600160c01b900460ff16156115975760405163533d99dd60e01b815260040160405180910390fd5b80544211156115b957604051637f780e6960e11b815260040160405180910390fd5b6115c1611804565b6001600160a01b0316336001600160a01b0316146115f25760405163e8e500cf60e01b815260040160405180910390fd5b60018101805460ff60c01b1916600160c01b1790819055602085015185516040515f93600160a01b900460e01b926116339290916002870190602401613947565b60408051601f198184030181529181526020820180516001600160e01b03166001600160e01b031990941693909317909252600184015491519092505f916001600160a01b0316906116869084906139f3565b5f604051808303815f865af19150503d805f81146116bf576040519150601f19603f3d011682016040523d82523d5f602084013e6116c4565b606091505b5050905085602001517f7e0ecd6164be27b671fff5c6ce71bf398a986762c5c0918cdb3a6e35db954109826116f761241f565b60408051921515835260208301919091520160405180910390a2505050505050565b7f9016d09d72d40fdae2fd8ceac6b6234c7706214fd39c1cd1e609a0528c199300546001600160a01b031690565b5f8282611755826008612369565b611760816008612369565b61176e600a60088787612406565b92508284867f34fde9e0b19fc23ffdc594c6297af091e77853cf7db0b9e74e9ca4709b8c0803610c4461241f565b5f82826117aa826008612369565b6117b5816008612369565b6117c2600e5f8787612406565b92508284867fd1a7fea2502e48412632cb16e53709af37dce699f612478a300ce07f66be39ff610c4461241f565b5f5f516020613d2b5f395f51905f52610f6a565b5f7fe7c23215b238bd513ed25539b22c0956fce7d1f5b5dc1096bd872c82e22450865b546001600160a01b0316919050565b5f6040518060400160405280600481526020016365766d2f60e01b81525046601885853060405160200161186f96959493929190613a0e565b6040516020818303038152906040528051906020012090506113228183612930565b5f6118c8868585856040516020016118ac9493929190613a5f565b6040516020818303038152906040528051906020012086612843565b9695505050505050565b5f5f6118dd846127c9565b90505f6118e9846127c9565b90506118f58583612369565b6118ff8482612369565b80600b8111156119115761191161384e565b82600b8111156119235761192361384e565b14828290916119475760405163356f777560e01b8152600401610f9a9291906138c3565b50506119566007838787612406565b92508284867f38b11d2618335162a38c69b4740679672c6769855b493721bde217b679decd74610c4461241f565b5f61132283835f612953565b61199a82336114cb565b823390916119cd57604051634a995a5b60e11b815260048101929092526001600160a01b03166024820152604401610f9a565b5050610e5b82826129f3565b5f61132283836008612953565b5f82826119f4826008612369565b6119ff816008612369565b611a0c600d5f8787612406565b92508284867f708ddafcd1bb74fbd9425c548f2ddf7b4eabedf0a355a195f978c62cffcef08e610c4461241f565b5f5f85805190602001205f604051602001611a5f929190918252602082015260400190565b6040516020818303038152906040528051906020012090505f611a828285612a43565b9050611ada816040518060400160405280600481526020016365766d2f60e01b81525046308a8a604051602001611abe96959493929190613a86565b6040516020818303038152906040528051906020012085612a43565b979650505050505050565b7ff0c57e16840df040f15088dc2f81fe391c3923bec73e23a9662efc9c229c6a008054600160401b810460ff1615906001600160401b03165f81158015611b295750825b90505f826001600160401b03166001148015611b445750303b155b905081158015611b52575080155b15611b705760405163f92ee8a960e01b815260040160405180910390fd5b845467ffffffffffffffff191660011785558315611b9a57845460ff60401b1916600160401b1785555b611ba386612a57565b8315611be957845460ff60401b19168555604051600181527fc7f505b2f371ae2175ee4913f4499e1f2633a7b5936321eed1cdaeb6115181d29060200160405180910390a15b505050505050565b6040805160a0810182525f8082526020820181905291810182905260608082019290925260808101919091525f516020613d2b5f395f51905f525f83815260019182016020908152604091829020825160a08101845281548152938101546001600160a01b03811692850192909252600160a01b820460e01b6001600160e01b03191692840192909252600160c01b900460ff1615156060830152600281018054608084019190611ca19061390f565b80601f0160208091040260200160405190810160405280929190818152602001828054611ccd9061390f565b8015611d185780601f10611cef57610100808354040283529160200191611d18565b820191905f5260205f20905b815481529060010190602001808311611cfb57829003601f168201915b5050505050815250509050919050565b5f5f611d33846127c9565b90505f611d3f846127c9565b9050611d4b8583612369565b611d558482612369565b80600b811115611d6757611d6761384e565b82600b811115611d7957611d7961384e565b1482829091611d9d5760405163356f777560e01b8152600401610f9a9291906138c3565b5050611dac6005838787612406565b92508284867ff076409d991f9ec7b637d4fdd15551d1540e5d1f1ff1e83aba2928f5819e2a98610c4461241f565b5f611e0f858484604051602001611df393929190613acd565b6040516020818303038152906040528051906020012085612843565b95945050505050565b5f5f611e25858585612a68565b90505f6019868686604051602001611e409493929190613a5f565b604051602081830303815290604052805190602001209050611e628183612930565b9250611e6e83336125b6565b8284867fc83a529a4d175ec95c80d26bdcec4aa26e59ee48505e0bacfd3c57890b38d20f89611e9b61241f565b6040805192835260208301919091520160405180910390a450509392505050565b60605f611eed633b9aca007f0000000000000000000000000000000000000000000000000000000000000000613aec565b9050611ef7610d18565b611eff610c5d565b611f0883612b18565b604051602001611f1a93929190613b0b565b60405160208183030381529060405291505090565b5f8282611f3d826008612369565b611f48816008612369565b611f56600160088787612406565b92508284867fc5d2479f09be2fcbd429c540d90a2be6b7420bc2e964852544a575e9afc8f407610c4461241f565b5f8282611f92826008612369565b611f9d816008612369565b611faa600c5f8787612406565b92508284867f7e19a33f96fa8c42243285baa16f68092c8c2dc3b81f263129ed827f70517120610c4461241f565b5f8282611fe6826008612369565b611ff1816008612369565b611fff601360088787612406565b92508284867f2297cd6b1ae4e1c7cadbb7db6e2324a1e45f0f4b6ad7f7c7c657537cb1fc89d6610c4461241f565b5f828261203b826008612369565b612046816008612369565b61205360115f8787612406565b92508284867f59442dfd211213e44c3e6b5715d660007bda11c4b85cb2dc2738053776c86572610c4461241f565b5f5f6017848460405160200161209993929190613b41565b6040516020818303038152906040528051906020012090506120bb8184612930565b91506120c782336125b6565b8183600b8111156120da576120da61384e565b60ff16857ffbfeab1405e5cf13d79743e8fa376879cb43d337735c24a9830f7d839fad91e261210761241f565b60405190815260200160405180910390a45092915050565b61212761250c565b6001600160a01b03811661215057604051631e4fbdf760e01b81525f6004820152602401610f9a565b61215981612866565b50565b5f61216783336114cb565b8333909161219a57604051634a995a5b60e11b815260048101929092526001600160a01b03166024820152604401610f9a565b50505f6121b15f516020613d2b5f395f51905f5290565b8054909150815f6121c183613884565b909155506040805160a0810182528781523360208083019182526001600160e01b03198b168385019081525f60608501818152608086018b815288835260018a8101909552969091208551815593519284018054925191511515600160c01b0260ff60c01b1960e09390931c600160a01b026001600160c01b03199094166001600160a01b0395909516949094179290921716919091179055915192945091600282019061226f9082613bb3565b5090505083827fa3dfcb66ad4705db974297faa7b3f18b582f92d79ceb49ecd877d246753985358761229f61241f565b6040805192835260208301919091520160405180910390a350949350505050565b5f82826122ce826008612369565b6122d9816008612369565b6122e65f60088787612406565b92508284867fa688269fb5e1e934be93b06c4df31eb561001f198fb73b39615f0c727ea6fb50610c4461241f565b5f8282612322826008612369565b61232d816008612369565b61233b600b60088787612406565b92508284867f6f7f73e4205ead68dc59cd0a9ea2ac4f71a1c2dcd4262f0f1de33c4eb4cf30bb610c4461241f565b61237382336114cb565b823390916123a657604051634a995a5b60e11b815260048101929092526001600160a01b03166024820152604401610f9a565b505080600b8111156123ba576123ba61384e565b6123c3836127c9565b600b8111156123d4576123d461384e565b146123de836127c9565b8290916124005760405163356f777560e01b8152600401610f9a9291906138c3565b50505050565b5f61241385858585611dda565b905061135c81336125b6565b5f7f424e67de01535191ae441dac30ebc840d30f78dda500964a3abe35b40c86270c8054905f61244e83613884565b91905055905090565b60606124658460ff16612b18565b6124718460ff16612b18565b61247d8460ff16612b18565b60405160200161248f93929190613c6d565b60405160208183030381529060405290509392505050565b5f5f5f5f6124b58686612ba7565b9250925092506124c58282612bf0565b5090949350505050565b60605f6124db83612ca8565b6040805160208082528183019092529192505f91906020820181803683375050509182525060208101929092525090565b33612515611719565b6001600160a01b0316146113d35760405163118cdaa760e01b8152336004820152602401610f9a565b5f610d1261254a612ccf565b8360405161190160f01b8152600281019290925260228201526042902090565b5f600882600b81111561257f5761257f61384e565b1480610d1257505f82600b8111156125995761259961384e565b1492915050565b5f6125ae8686868686611891565b9050611e0f81335b5f82826040516020016125e092919091825260601b6001600160601b031916602082015260340190565b6040516020818303038152906040528051906020012090506001815d60015f5c0181815d805f5d50505050565b306001600160a01b037f000000000000000000000000000000000000000000000000000000000000000016148061267d57507f00000000000000000000000000000000000000000000000000000000000000006001600160a01b0316612671612df8565b6001600160a01b031614155b156113d35760405163703e46dd60e11b815260040160405180910390fd5b6126a3611719565b6001600160a01b0316336001600160a01b031614612159575f5ffd5b816001600160a01b03166352d1902d6040518163ffffffff1660e01b8152600401602060405180830381865afa925050508015612719575060408051601f3d908101601f1916820190925261271691810190613ca2565b60015b61274157604051634c9c8ce360e01b81526001600160a01b0383166004820152602401610f9a565b5f516020613d0b5f395f51905f52811461277157604051632a87526960e21b815260048101829052602401610f9a565b61277b8383612e0c565b505050565b306001600160a01b037f000000000000000000000000000000000000000000000000000000000000000016146113d35760405163703e46dd60e11b815260040160405180910390fd5b5f60ff600883901c16600b811115610d1257610d1261384e565b5f6127ee8383611836565b90506127fa81336125b6565b807f2a14be14319dfd1a9f799604f633d6fb6a755c16dbb28e2b496e56d552374647848461282661241f565b60405161283593929190613cb9565b60405180910390a292915050565b5f6113228383612930565b5f61285a848484611329565b905061132281336125b6565b7f9016d09d72d40fdae2fd8ceac6b6234c7706214fd39c1cd1e609a0528c19930080546001600160a01b031981166001600160a01b03848116918217845560405192169182907f8be0079c531659141344cd1fd0a4f28419497f9722a3daafe3b4186f6b6457e0905f90a3505050565b6060610cca7f00000000000000000000000000000000000000000000000000000000000000006001612e61565b6060610cca7f00000000000000000000000000000000000000000000000000000000000000006002612e61565b61ffff198216600882600b81111561294a5761294a61384e565b901b1792915050565b5f61296084843385611a3a565b905061296c81846114cb565b1561298a5760405163031a648560e31b815260040160405180910390fd5b61299481846129f3565b61299e81336125b6565b6001600160a01b03831633827febefdc81a19926c3d7478ba60eeeb24bc2b9132d18ac57281acac1932afc6b2f85886129d561241f565b6040516129e493929190613cdb565b60405180910390a49392505050565b5f7fea597c75836e9e4ed72237a0e6389c322017ee3f12368962289c35586a1d25985f938452602090815260408085206001600160a01b039094168552929052509020805460ff19166001179055565b62ff0000198281169081611e0f8185612930565b612a5f612f0a565b61215981612f53565b5f612a73845f612369565b612a7c836127c9565b9050600881600b811115612a9257612a9261384e565b1480612aae57505f81600b811115612aac57612aac61384e565b145b8190612ace57604051631136f9f360e11b8152600401610f9a9190613876565b50612ad983336114cb565b83339091612b0c57604051634a995a5b60e11b815260048101929092526001600160a01b03166024820152604401610f9a565b50506113228282612369565b60605f612b2483612f5b565b60010190505f816001600160401b03811115612b4257612b426132ca565b6040519080825280601f01601f191660200182016040528015612b6c576020820181803683370190505b5090508181016020015b5f19016f181899199a1a9b1b9c1cb0b131b232b360811b600a86061a8153600a8504945084612b7657509392505050565b5f5f5f8351604103612bde576020840151604085015160608601515f1a612bd088828585613032565b955095509550505050612be9565b505081515f91506002905b9250925092565b5f826003811115612c0357612c0361384e565b03612c0c575050565b6001826003811115612c2057612c2061384e565b03612c3e5760405163f645eedf60e01b815260040160405180910390fd5b6002826003811115612c5257612c5261384e565b03612c735760405163fce698f760e01b815260048101829052602401610f9a565b6003826003811115612c8757612c8761384e565b03610e5b576040516335e2f38360e21b815260048101829052602401610f9a565b5f60ff8216601f811115610d1257604051632cd44ac360e21b815260040160405180910390fd5b5f306001600160a01b037f000000000000000000000000000000000000000000000000000000000000000016148015612d2757507f000000000000000000000000000000000000000000000000000000000000000046145b15612d5157507f000000000000000000000000000000000000000000000000000000000000000090565b610cca604080517f8b73c3c69bb8fe3d512ecc4cf759cc79239f7b179b0ffacaa9a75d522b39400f60208201527f0000000000000000000000000000000000000000000000000000000000000000918101919091527f000000000000000000000000000000000000000000000000000000000000000060608201524660808201523060a08201525f9060c00160405160208183030381529060405280519060200120905090565b5f5f516020613d0b5f395f51905f52611827565b612e15826130fa565b6040516001600160a01b038316907fbc7cd75a20ee27fd9adebab32041f755214dbc6bffa90cc0225b39da2e5c2d3b905f90a2805115612e595761277b828261315d565b610e5b6131c6565b606060ff8314612e7b57612e74836124cf565b9050610d12565b818054612e879061390f565b80601f0160208091040260200160405190810160405280929190818152602001828054612eb39061390f565b8015612efe5780601f10612ed557610100808354040283529160200191612efe565b820191905f5260205f20905b815481529060010190602001808311612ee157829003601f168201915b50505050509050610d12565b7ff0c57e16840df040f15088dc2f81fe391c3923bec73e23a9662efc9c229c6a0054600160401b900460ff166113d357604051631afcd79f60e31b815260040160405180910390fd5b612127612f0a565b5f8072184f03e93ff9f4daa797ed6e38ed64bf6a1f0160401b8310612f995772184f03e93ff9f4daa797ed6e38ed64bf6a1f0160401b830492506040015b6d04ee2d6d415b85acef81000000008310612fc5576d04ee2d6d415b85acef8100000000830492506020015b662386f26fc100008310612fe357662386f26fc10000830492506010015b6305f5e1008310612ffb576305f5e100830492506008015b612710831061300f57612710830492506004015b60648310613021576064830492506002015b600a8310610d125760010192915050565b5f80807f7fffffffffffffffffffffffffffffff5d576e7357a4501ddfe92f46681b20a084111561306b57505f915060039050826130f0565b604080515f808252602082018084528a905260ff891692820192909252606081018790526080810186905260019060a0016020604051602081039080840390855afa1580156130bc573d5f5f3e3d5ffd5b5050604051601f1901519150506001600160a01b0381166130e757505f9250600191508290506130f0565b92505f91508190505b9450945094915050565b806001600160a01b03163b5f0361312f57604051634c9c8ce360e01b81526001600160a01b0382166004820152602401610f9a565b5f516020613d0b5f395f51905f5280546001600160a01b0319166001600160a01b0392909216919091179055565b60605f5f846001600160a01b03168460405161317991906139f3565b5f60405180830381855af49150503d805f81146131b1576040519150601f19603f3d011682016040523d82523d5f602084013e6131b6565b606091505b5091509150611e0f8583836131e5565b34156113d35760405163b398979f60e01b815260040160405180910390fd5b6060826131fa576131f582613241565b611322565b815115801561321157506001600160a01b0384163b155b1561323a57604051639996b31560e01b81526001600160a01b0385166004820152602401610f9a565b5080611322565b8051156132515780518082602001fd5b60405163d6bda27560e01b815260040160405180910390fd5b5f5f6040838503121561327b575f5ffd5b50508035926020909101359150565b5f81518084528060208401602086015e5f602082860101526020601f19601f83011685010191505092915050565b602081525f611322602083018461328a565b634e487b7160e01b5f52604160045260245ffd5b5f82601f8301126132ed575f5ffd5b81356001600160401b03811115613306576133066132ca565b604051601f8201601f19908116603f011681016001600160401b0381118282101715613334576133346132ca565b60405281815283820160200185101561334b575f5ffd5b816020850160208301375f918101602001919091529392505050565b5f5f60408385031215613378575f5ffd5b8235915060208301356001600160401b03811115613394575f5ffd5b6133a0858286016132de565b9150509250929050565b80356001600160a01b03811681146133c0575f5ffd5b919050565b5f5f604083850312156133d6575f5ffd5b823591506133e6602084016133aa565b90509250929050565b5f602082840312156133ff575f5ffd5b611322826133aa565b5f60408284031215613418575f5ffd5b604080519081016001600160401b038111828210171561343a5761343a6132ca565b604052823581526020928301359281019290925250919050565b5f60408284031215613464575f5ffd5b6113228383613408565b8035600c81106133c0575f5ffd5b5f5f6040838503121561348d575f5ffd5b823591506133e66020840161346e565b5f5f604083850312156134ae575f5ffd5b6134b7836133aa565b915060208301356001600160401b03811115613394575f5ffd5b5f602082840312156134e1575f5ffd5b6113228261346e565b5f602082840312156134fa575f5ffd5b81358015158114611322575f5ffd5b8035601d81106133c0575f5ffd5b5f5f5f60608486031215613529575f5ffd5b61353284613509565b92506135406020850161346e565b929592945050506040919091013590565b5f60208284031215613561575f5ffd5b5035919050565b60ff60f81b8816815260e060208201525f61358660e083018961328a565b8281036040840152613598818961328a565b606084018890526001600160a01b038716608085015260a0840186905283810360c0850152845180825260208087019350909101905f5b818110156135ed5783518352602093840193909201916001016135cf565b50909b9a5050505050505050505050565b5f5f6060838503121561360f575f5ffd5b6136198484613408565b915060408301356001600160401b03811115613394575f5ffd5b5f5f5f5f5f60a08688031215613647575f5ffd5b61365086613509565b945061365e6020870161346e565b94979496505050506040830135926060810135926080909101359150565b5f5f6040838503121561368d575f5ffd5b82356001600160401b038111156136a2575f5ffd5b6136ae858286016132de565b9250506133e6602084016133aa565b5f5f5f5f608085870312156136d0575f5ffd5b84356001600160401b038111156136e5575f5ffd5b6136f1878288016132de565b945050613700602086016133aa565b925061370e604086016133aa565b915061371c6060860161346e565b905092959194509250565b602081528151602082015260018060a01b03602083015116604082015263ffffffff60e01b60408301511660608201526060820151151560808201525f608083015160a08084015261135c60c084018261328a565b5f5f5f5f6080858703121561378f575f5ffd5b61379885613509565b93506137a66020860161346e565b93969395505050506040820135916060013590565b5f5f5f606084860312156137cd575f5ffd5b505081359360208301359350604090920135919050565b5f5f5f5f608085870312156137f7575f5ffd5b84356001600160e01b03198116811461380e575f5ffd5b9350602085013592506040850135915060608501356001600160401b03811115613836575f5ffd5b613842878288016132de565b91505092959194509250565b634e487b7160e01b5f52602160045260245ffd5b600c81106138725761387261384e565b9052565b60208101610d128284613862565b5f600182016138a157634e487b7160e01b5f52601160045260245ffd5b5060010190565b604081016138b68285613862565b8260208301529392505050565b604081016138d18285613862565b6113226020830184613862565b601d81106138ee576138ee61384e565b60f81b9052565b6138ff81846138de565b6001810191909152602101919050565b600181811c9082168061392357607f821691505b60208210810361394157634e487b7160e01b5f52602260045260245ffd5b50919050565b838152826020820152606060408201525f5f83546139648161390f565b806060860152600182165f8114613982576001811461399e576139cf565b60ff1983166080870152608082151560051b87010193506139cf565b865f5260205f205f5b838110156139c6578154888201608001526001909101906020016139a7565b87016080019450505b5091979650505050505050565b5f81518060208401855e5f93019283525090919050565b5f61132282846139dc565b600c81106138ee576138ee61384e565b5f613a1982896139dc565b878152613a2960208201886138de565b856021820152613a3c60418201866139fe565b60609390931b6001600160601b0319166042840152505060560195945050505050565b613a6981866138de565b600181019390935260218301919091526041820152606101919050565b8681525f613a9760208301886139dc565b95865250506001600160601b0319606093841b8116602086015291831b8216603485015290911b166048820152605c0192915050565b613ad781856138de565b60018101929092526021820152604101919050565b5f82613b0657634e487b7160e01b5f52601260045260245ffd5b500690565b5f613b1682866139dc565b605f60f81b8152613b2a60018201866139dc565b9050615f5f60f01b81526118c860028201856139dc565b613b4b81856138de565b826001820152613b5e60218201836139fe565b6022019392505050565b601f82111561277b57805f5260205f20601f840160051c81016020851015613b8d5750805b601f840160051c820191505b81811015613bac575f8155600101613b99565b5050505050565b81516001600160401b03811115613bcc57613bcc6132ca565b613be081613bda845461390f565b84613b68565b6020601f821160018114613c12575f8315613bfb5750848201515b5f19600385901b1c1916600184901b178455613bac565b5f84815260208120601f198516915b82811015613c415787850151825560209485019460019092019101613c21565b5084821015613c5e57868401515f19600387901b60f8161c191681555b50505050600190811b01905550565b5f613c7882866139dc565b605f60f81b8152613c8c60018201866139dc565b9050605f60f81b81526118c860018201856139dc565b5f60208284031215613cb2575f5ffd5b5051919050565b83815260608101613ccd6020830185613862565b826040830152949350505050565b613ce58185613862565b606060208201525f613cfa606083018561328a565b905082604083015294935050505056fe360894a13ba1a3210667c828492db98dca3e2076cc3735a920a3ca505d382bbc198290ce05c8f5de5b03bb79e2f2bb4462725128ca87b744942e718d1308f0eca2646970667358221220478b1d52d0d775bf2fa3cb8d129e4f4a2a1f43195720971131371f3ca44b246264736f6c634300081c0033",
  "linkReferences": {},
  "deployedLinkReferences": {}
}