{
  "_format": "hh-sol-artifact-1",
  "contractName": "ConfidentialERC20Wrapper",
  "sourceName": "contracts/ConfidentialERC20Wrapper.sol",
  "abi": [
    {
      "inputs": [
        {
          "internalType": "address",
          "name": "_baseERC20",
          "type": "address"
        },
        {
          "internalType": "address[]",
          "name": "_auditorAddress",
          "type": "address[]"
        },
        {
          "internalType": "string",
          "name": "_tokenName",
          "type": "string"
        },
        {
          "internalType": "string",
          "name": "_tokenSymbol",
          "type": "string"
        }
      ],
      "stateMutability": "nonpayable",
      "type": "constructor"
    },
    {
      "inputs": [
        {
          "internalType": "address",
          "name": "spender",
          "type": "address"
        },
        {
          "internalType": "uint256",
          "name": "allowance",
          "type": "uint256"
        },
        {
          "internalType": "uint256",
          "name": "needed",
          "type": "uint256"
        }
      ],
      "name": "ERC20InsufficientAllowance",
      "type": "error"
    },
    {
      "inputs": [
        {
          "internalType": "address",
          "name": "sender",
          "type": "address"
        },
        {
          "internalType": "uint256",
          "name": "balance",
          "type": "uint256"
        },
        {
          "internalType": "uint256",
          "name": "needed",
          "type": "uint256"
        }
      ],
      "name": "ERC20InsufficientBalance",
      "type": "error"
    },
    {
      "inputs": [
        {
          "internalType": "address",
          "name": "approver",
          "type": "address"
        }
      ],
      "name": "ERC20InvalidApprover",
      "type": "error"
    },
    {
      "inputs": [
        {
          "internalType": "address",
          "name": "receiver",
          "type": "address"
        }
      ],
      "name": "ERC20InvalidReceiver",
      "type": "error"
    },
    {
      "inputs": [
        {
          "internalType": "address",
          "name": "sender",
          "type": "address"
        }
      ],
      "name": "ERC20InvalidSender",
      "type": "error"
    },
    {
      "inputs": [
        {
          "internalType": "address",
          "name": "spender",
          "type": "address"
        }
      ],
      "name": "ERC20InvalidSpender",
      "type": "error"
    },
    {
      "inputs": [
        {
          "internalType": "address",
          "name": "owner",
          "type": "address"
        }
      ],
      "name": "OwnableInvalidOwner",
      "type": "error"
    },
    {
      "inputs": [
        {
          "internalType": "address",
          "name": "account",
          "type": "address"
        }
      ],
      "name": "OwnableUnauthorizedAccount",
      "type": "error"
    },
    {
      "inputs": [
        {
          "internalType": "address",
          "name": "token",
          "type": "address"
        }
      ],
      "name": "SafeERC20FailedOperation",
      "type": "error"
    },
    {
      "inputs": [
        {
          "internalType": "address",
          "name": "account",
          "type": "address"
        }
      ],
      "name": "UnwrapNotAllowed",
      "type": "error"
    },
    {
      "anonymous": false,
      "inputs": [
        {
          "indexed": true,
          "internalType": "address",
          "name": "owner",
          "type": "address"
        },
        {
          "indexed": true,
          "internalType": "address",
          "name": "spender",
          "type": "address"
        },
        {
          "indexed": false,
          "internalType": "euint256",
          "name": "value",
          "type": "bytes32"
        }
      ],
      "name": "Approval",
      "type": "event"
    },
    {
      "anonymous": false,
      "inputs": [
        {
          "indexed": true,
          "internalType": "address",
          "name": "account",
          "type": "address"
        },
        {
          "indexed": false,
          "internalType": "uint256",
          "name": "amount",
          "type": "uint256"
        }
      ],
      "name": "Burn",
      "type": "event"
    },
    {
      "anonymous": false,
      "inputs": [
        {
          "indexed": true,
          "internalType": "address",
          "name": "previousOwner",
          "type": "address"
        },
        {
          "indexed": true,
          "internalType": "address",
          "name": "newOwner",
          "type": "address"
        }
      ],
      "name": "OwnershipTransferred",
      "type": "event"
    },
    {
      "anonymous": false,
      "inputs": [
        {
          "indexed": true,
          "internalType": "address",
          "name": "from",
          "type": "address"
        },
        {
          "indexed": true,
          "internalType": "address",
          "name": "to",
          "type": "address"
        },
        {
          "indexed": false,
          "internalType": "euint256",
          "name": "value",
          "type": "bytes32"
        }
      ],
      "name": "Transfer",
      "type": "event"
    },
    {
      "anonymous": false,
      "inputs": [
        {
          "indexed": true,
          "internalType": "address",
          "name": "account",
          "type": "address"
        },
        {
          "indexed": false,
          "internalType": "uint256",
          "name": "amount",
          "type": "uint256"
        }
      ],
      "name": "Unwrap",
      "type": "event"
    },
    {
      "anonymous": false,
      "inputs": [
        {
          "indexed": true,
          "internalType": "address",
          "name": "account",
          "type": "address"
        },
        {
          "indexed": false,
          "internalType": "uint256",
          "name": "amount",
          "type": "uint256"
        }
      ],
      "name": "Wrap",
      "type": "event"
    },
    {
      "inputs": [
        {
          "internalType": "address",
          "name": "account",
          "type": "address"
        }
      ],
      "name": "_balances",
      "outputs": [
        {
          "internalType": "euint256",
          "name": "",
          "type": "bytes32"
        }
      ],
      "stateMutability": "view",
      "type": "function"
    },
    {
      "inputs": [
        {
          "internalType": "uint256",
          "name": "requestID",
          "type": "uint256"
        },
        {
          "internalType": "bytes32",
          "name": "decryptedBoolInput",
          "type": "bytes32"
        },
        {
          "internalType": "bytes",
          "name": "data",
          "type": "bytes"
        }
      ],
      "name": "_burnCallback",
      "outputs": [],
      "stateMutability": "nonpayable",
      "type": "function"
    },
    {
      "inputs": [],
      "name": "_totalSupply",
      "outputs": [
        {
          "internalType": "uint256",
          "name": "",
          "type": "uint256"
        }
      ],
      "stateMutability": "view",
      "type": "function"
    },
    {
      "inputs": [
        {
          "internalType": "address",
          "name": "owner",
          "type": "address"
        },
        {
          "internalType": "address",
          "name": "spender",
          "type": "address"
        }
      ],
      "name": "allowance",
      "outputs": [
        {
          "internalType": "euint256",
          "name": "",
          "type": "bytes32"
        }
      ],
      "stateMutability": "view",
      "type": "function"
    },
    {
      "inputs": [
        {
          "internalType": "address",
          "name": "spender",
          "type": "address"
        },
        {
          "internalType": "bytes",
          "name": "encryptedAmount",
          "type": "bytes"
        }
      ],
      "name": "approve",
      "outputs": [
        {
          "internalType": "bool",
          "name": "",
          "type": "bool"
        }
      ],
      "stateMutability": "nonpayable",
      "type": "function"
    },
    {
      "inputs": [
        {
          "internalType": "address",
          "name": "spender",
          "type": "address"
        },
        {
          "internalType": "euint256",
          "name": "value",
          "type": "bytes32"
        }
      ],
      "name": "approve",
      "outputs": [
        {
          "internalType": "bool",
          "name": "",
          "type": "bool"
        }
      ],
      "stateMutability": "nonpayable",
      "type": "function"
    },
    {
      "inputs": [
        {
          "internalType": "uint256",
          "name": "",
          "type": "uint256"
        }
      ],
      "name": "auditorAddresses",
      "outputs": [
        {
          "internalType": "address",
          "name": "",
          "type": "address"
        }
      ],
      "stateMutability": "view",
      "type": "function"
    },
    {
      "inputs": [
        {
          "internalType": "address",
          "name": "account",
          "type": "address"
        }
      ],
      "name": "balanceOf",
      "outputs": [
        {
          "internalType": "euint256",
          "name": "",
          "type": "bytes32"
        }
      ],
      "stateMutability": "view",
      "type": "function"
    },
    {
      "inputs": [],
      "name": "baseERC20",
      "outputs": [
        {
          "internalType": "contract IERC20",
          "name": "",
          "type": "address"
        }
      ],
      "stateMutability": "view",
      "type": "function"
    },
    {
      "inputs": [
        {
          "internalType": "address",
          "name": "from",
          "type": "address"
        },
        {
          "internalType": "uint256",
          "name": "amount",
          "type": "uint256"
        }
      ],
      "name": "burn",
      "outputs": [],
      "stateMutability": "nonpayable",
      "type": "function"
    },
    {
      "inputs": [
        {
          "internalType": "uint256",
          "name": "",
          "type": "uint256"
        }
      ],
      "name": "burnRqs",
      "outputs": [
        {
          "internalType": "address",
          "name": "account",
          "type": "address"
        },
        {
          "internalType": "uint256",
          "name": "amount",
          "type": "uint256"
        }
      ],
      "stateMutability": "view",
      "type": "function"
    },
    {
      "inputs": [],
      "name": "decimals",
      "outputs": [
        {
          "internalType": "uint8",
          "name": "",
          "type": "uint8"
        }
      ],
      "stateMutability": "view",
      "type": "function"
    },
    {
      "inputs": [
        {
          "internalType": "address",
          "name": "spender",
          "type": "address"
        },
        {
          "internalType": "euint256",
          "name": "subtractedValue",
          "type": "bytes32"
        }
      ],
      "name": "decreaseAllowance",
      "outputs": [
        {
          "internalType": "ebool",
          "name": "",
          "type": "bytes32"
        }
      ],
      "stateMutability": "nonpayable",
      "type": "function"
    },
    {
      "inputs": [
        {
          "internalType": "address",
          "name": "spender",
          "type": "address"
        },
        {
          "internalType": "bytes",
          "name": "encryptedAmount",
          "type": "bytes"
        }
      ],
      "name": "decreaseAllowance",
      "outputs": [
        {
          "internalType": "ebool",
          "name": "",
          "type": "bytes32"
        }
      ],
      "stateMutability": "nonpayable",
      "type": "function"
    },
    {
      "inputs": [
        {
          "internalType": "address",
          "name": "spender",
          "type": "address"
        },
        {
          "internalType": "euint256",
          "name": "addedValue",
          "type": "bytes32"
        }
      ],
      "name": "increaseAllowance",
      "outputs": [
        {
          "internalType": "ebool",
          "name": "",
          "type": "bytes32"
        }
      ],
      "stateMutability": "nonpayable",
      "type": "function"
    },
    {
      "inputs": [
        {
          "internalType": "address",
          "name": "spender",
          "type": "address"
        },
        {
          "internalType": "bytes",
          "name": "encryptedAmount",
          "type": "bytes"
        }
      ],
      "name": "increaseAllowance",
      "outputs": [
        {
          "internalType": "ebool",
          "name": "",
          "type": "bytes32"
        }
      ],
      "stateMutability": "nonpayable",
      "type": "function"
    },
    {
      "inputs": [
        {
          "internalType": "address",
          "name": "to",
          "type": "address"
        },
        {
          "internalType": "uint256",
          "name": "amount",
          "type": "uint256"
        }
      ],
      "name": "mint",
      "outputs": [],
      "stateMutability": "nonpayable",
      "type": "function"
    },
    {
      "inputs": [],
      "name": "name",
      "outputs": [
        {
          "internalType": "string",
          "name": "",
          "type": "string"
        }
      ],
      "stateMutability": "view",
      "type": "function"
    },
    {
      "inputs": [],
      "name": "owner",
      "outputs": [
        {
          "internalType": "address",
          "name": "",
          "type": "address"
        }
      ],
      "stateMutability": "view",
      "type": "function"
    },
    {
      "inputs": [],
      "name": "renounceOwnership",
      "outputs": [],
      "stateMutability": "nonpayable",
      "type": "function"
    },
    {
      "inputs": [],
      "name": "symbol",
      "outputs": [
        {
          "internalType": "string",
          "name": "",
          "type": "string"
        }
      ],
      "stateMutability": "view",
      "type": "function"
    },
    {
      "inputs": [],
      "name": "totalSupply",
      "outputs": [
        {
          "internalType": "uint256",
          "name": "",
          "type": "uint256"
        }
      ],
      "stateMutability": "view",
      "type": "function"
    },
    {
      "inputs": [
        {
          "internalType": "address",
          "name": "to",
          "type": "address"
        },
        {
          "internalType": "bytes",
          "name": "encryptedAmount",
          "type": "bytes"
        }
      ],
      "name": "transfer",
      "outputs": [
        {
          "internalType": "bool",
          "name": "",
          "type": "bool"
        }
      ],
      "stateMutability": "nonpayable",
      "type": "function"
    },
    {
      "inputs": [
        {
          "internalType": "address",
          "name": "to",
          "type": "address"
        },
        {
          "internalType": "euint256",
          "name": "value",
          "type": "bytes32"
        }
      ],
      "name": "transfer",
      "outputs": [
        {
          "internalType": "bool",
          "name": "",
          "type": "bool"
        }
      ],
      "stateMutability": "nonpayable",
      "type": "function"
    },
    {
      "inputs": [
        {
          "internalType": "address",
          "name": "from",
          "type": "address"
        },
        {
          "internalType": "address",
          "name": "to",
          "type": "address"
        },
        {
          "internalType": "bytes",
          "name": "encryptedAmount",
          "type": "bytes"
        }
      ],
      "name": "transferFrom",
      "outputs": [
        {
          "internalType": "bool",
          "name": "",
          "type": "bool"
        }
      ],
      "stateMutability": "nonpayable",
      "type": "function"
    },
    {
      "inputs": [
        {
          "internalType": "address",
          "name": "from",
          "type": "address"
        },
        {
          "internalType": "address",
          "name": "to",
          "type": "address"
        },
        {
          "internalType": "euint256",
          "name": "value",
          "type": "bytes32"
        }
      ],
      "name": "transferFrom",
      "outputs": [
        {
          "internalType": "bool",
          "name": "",
          "type": "bool"
        }
      ],
      "stateMutability": "nonpayable",
      "type": "function"
    },
    {
      "inputs": [
        {
          "internalType": "address",
          "name": "newOwner",
          "type": "address"
        }
      ],
      "name": "transferOwnership",
      "outputs": [],
      "stateMutability": "nonpayable",
      "type": "function"
    },
    {
      "inputs": [
        {
          "internalType": "uint256",
          "name": "amount",
          "type": "uint256"
        }
      ],
      "name": "unwrap",
      "outputs": [],
      "stateMutability": "nonpayable",
      "type": "function"
    },
    {
      "inputs": [
        {
          "internalType": "address",
          "name": "",
          "type": "address"
        }
      ],
      "name": "unwrapDisabled",
      "outputs": [
        {
          "internalType": "bool",
          "name": "",
          "type": "bool"
        }
      ],
      "stateMutability": "view",
      "type": "function"
    },
    {
      "inputs": [
        {
          "internalType": "uint256",
          "name": "_amount",
          "type": "uint256"
        }
      ],
      "name": "wrap",
      "outputs": [],
      "stateMutability": "nonpayable",
      "type": "function"
    }
  ],
  "bytecode": "0x608060405234801561000f575f5ffd5b506040516121f03803806121f083398101604081905261002e9161034d565b818184828282338061005a57604051631e4fbdf760e01b81525f60048201526024015b60405180910390fd5b610063816101bd565b50600561007084826104e7565b50600661007d83826104e7565b50805161009190600490602084019061020c565b5050600880546001600160a01b0319163317905550506040805163313ce56760e01b815290515f94506001600160a01b038916935063313ce567925060048083019260209291908290030181865afa1580156100ef573d5f5f3e3d5ffd5b505050506040513d601f19601f8201168201806040525081019061011391906105a1565b905060128160ff1611156101805760405162461bcd60e51b815260206004820152602e60248201527f4261736520455243323020746f6b656e206d7573742068617665203138206f7260448201526d206c65737320646563696d616c7360901b6064820152608401610051565b600980546001600160a01b0319166001600160a01b0396909616959095179094555050600b805460ff191660ff90931692909217909155506105c8565b5f80546001600160a01b038381166001600160a01b0319831681178455604051919092169283917f8be0079c531659141344cd1fd0a4f28419497f9722a3daafe3b4186f6b6457e09190a35050565b828054828255905f5260205f2090810192821561025f579160200282015b8281111561025f57825182546001600160a01b0319166001600160a01b0390911617825560209092019160019091019061022a565b5061026b92915061026f565b5090565b5b8082111561026b575f8155600101610270565b80516001600160a01b0381168114610299575f5ffd5b919050565b634e487b7160e01b5f52604160045260245ffd5b604051601f8201601f191681016001600160401b03811182821017156102da576102da61029e565b604052919050565b5f82601f8301126102f1575f5ffd5b81516001600160401b0381111561030a5761030a61029e565b61031d601f8201601f19166020016102b2565b818152846020838601011115610331575f5ffd5b8160208501602083015e5f918101602001919091529392505050565b5f5f5f5f60808587031215610360575f5ffd5b61036985610283565b60208601519094506001600160401b03811115610384575f5ffd5b8501601f81018713610394575f5ffd5b80516001600160401b038111156103ad576103ad61029e565b8060051b6103bd602082016102b2565b9182526020818401810192908101908a8411156103d8575f5ffd5b6020850194505b83851015610401576103f085610283565b8252602094850194909101906103df565b60408a0151909750935050506001600160401b038211159050610422575f5ffd5b61042e878288016102e2565b606087015190935090506001600160401b0381111561044b575f5ffd5b610457878288016102e2565b91505092959194509250565b600181811c9082168061047757607f821691505b60208210810361049557634e487b7160e01b5f52602260045260245ffd5b50919050565b601f8211156104e257805f5260205f20601f840160051c810160208510156104c05750805b601f840160051c820191505b818110156104df575f81556001016104cc565b50505b505050565b81516001600160401b038111156105005761050061029e565b6105148161050e8454610463565b8461049b565b6020601f821160018114610546575f831561052f5750848201515b5f19600385901b1c1916600184901b1784556104df565b5f84815260208120601f198516915b828110156105755787850151825560209485019460019092019101610555565b508482101561059257868401515f19600387901b60f8161c191681555b50505050600190811b01905550565b5f602082840312156105b1575f5ffd5b815160ff811681146105c1575f5ffd5b9392505050565b611c1b806105d55f395ff3fe608060405234801561000f575f5ffd5b50600436106101d1575f3560e01c8063715018a6116100fe5780639dc29fac1161009e578063dd62ed3e1161006e578063dd62ed3e14610441578063de0e9a3e14610479578063ea598cb01461048c578063f2fde38b1461049f575f5ffd5b80639dc29fac146103b7578063b3c06f50146103ca578063b4015a35146103dd578063c259484b1461042e575f5ffd5b80638da5cb5b116100d95780638da5cb5b14610378578063931c458b1461038957806395d89b411461039c57806397e5311c146103a4575f5ffd5b8063715018a61461034a5780637d32e7bd146103525780638d86a92214610365575f5ffd5b80633eaaf86b116101745780635cd2f4d3116101445780635cd2f4d3146102ce57806369b0758e146102e15780636ebcf6071461030357806370a0823114610322575f5ffd5b80633eaaf86b1461028a57806340c10f191461029357806349972663146102a857806350e0d9e0146102bb575f5ffd5b806329723511116101af57806329723511146102245780632bce450814610237578063313ce567146102625780633d18d6ce14610277575f5ffd5b8063014647f4146101d557806306fdde03146101fd57806318160ddd14610212575b5f5ffd5b6101e86101e336600461181a565b6104b2565b60405190151581526020015b60405180910390f35b610205610502565b6040516101f49190611897565b6003545b6040519081526020016101f4565b6101e861023236600461181a565b610592565b61024a6102453660046118a9565b6105d7565b6040516001600160a01b0390911681526020016101f4565b600b5460405160ff90911681526020016101f4565b6102166102853660046118c0565b6105ff565b61021660035481565b6102a66102a13660046118c0565b61068e565b005b6101e86102b63660046118e8565b61069c565b6102166102c93660046118c0565b6106ee565b6101e86102dc3660046118c0565b6106f9565b6101e86102ef366004611945565b600a6020525f908152604090205460ff1681565b610216610311366004611945565b60016020525f908152604090205481565b610216610330366004611945565b6001600160a01b03165f9081526001602052604090205490565b6102a661078a565b6101e86103603660046118c0565b61079d565b61021661037336600461181a565b61083f565b6008546001600160a01b031661024a565b6102a6610397366004611972565b61088c565b610205610a11565b60095461024a906001600160a01b031681565b6102a66103c53660046118c0565b610a20565b6101e86103d8366004611a37565b610a71565b61040f6103eb3660046118a9565b60076020525f9081526040902080546001909101546001600160a01b039091169082565b604080516001600160a01b0390931683526020830191909152016101f4565b61021661043c36600461181a565b610b07565b61021661044f366004611a71565b6001600160a01b039182165f90815260026020908152604080832093909416825291909152205490565b6102a66104873660046118a9565b610b4c565b6102a661049a3660046118a9565b610b8b565b6102a66104ad366004611945565b610c9f565b5f6104f7846102dc85858080601f0160208091040260200160405190810160405280939291908181526020018383808284375f92019190915250339250610d09915050565b506001949350505050565b60606005805461051190611aa2565b80601f016020809104026020016040519081016040528092919081815260200182805461053d90611aa2565b80156105885780601f1061055f57610100808354040283529160200191610588565b820191905f5260205f20905b81548152906001019060200180831161056b57829003601f168201915b5050505050905090565b5f6104f78461036085858080601f0160208091040260200160405190810160405280939291908181526020018383808284375f92019190915250339250610d09915050565b600481815481106105e6575f80fd5b5f918252602090912001546001600160a01b0316905081565b604051630f17c35d60e11b8152600481018290523360248201525f905f516020611bc65f395f51905f5290631e2f86ba90604401602060405180830381865afa15801561064e573d5f5f3e3d5ffd5b505050506040513d601f19601f820116820180604052508101906106729190611ada565b61067a575f5ffd5b610685338484610d7d565b90505b92915050565b6106988282610e19565b5050565b5f6106e285856103d886868080601f0160208091040260200160405190810160405280939291908181526020018383808284375f92019190915250339250610d09915050565b50600195945050505050565b5f6106858383610eed565b604051630f17c35d60e11b8152600481018290523360248201525f905f516020611bc65f395f51905f5290631e2f86ba90604401602060405180830381865afa158015610748573d5f5f3e3d5ffd5b505050506040513d601f19601f8201168201806040525081019061076c9190611ada565b610774575f5ffd5b33610780818585610fe0565b5060019392505050565b610792610ff2565b61079b5f61101f565b565b604051630f17c35d60e11b8152600481018290523360248201525f905f516020611bc65f395f51905f5290631e2f86ba90604401602060405180830381865afa1580156107ec573d5f5f3e3d5ffd5b505050506040513d601f19601f820116820180604052508101906108109190611ada565b610818575f5ffd5b335f81815260016020526040812054610831908561106e565b90506104f7828686846110bd565b5f6108848461028585858080601f0160208091040260200160405190810160405280939291908181526020018383808284375f92019190915250339250610d09915050565b949350505050565b5f83815260076020908152604091829020825180840190935280546001600160a01b031680845260019091015491830182905284151592918361090a5760405162461bcd60e51b8152602060048201526011602482015270111958dc9e5c1d1a5bdb8819985a5b1959607a1b60448201526064015b60405180910390fd5b600954610921906001600160a01b03168383611216565b816001600160a01b03167f5dd085b6070b4cae004f84daafd199fd55b0bdfa11c3a802baffe89c2419d8c28260405161095c91815260200190565b60405180910390a28060035f8282546109759190611b14565b90915550506001600160a01b0382165f908152600160205260409020546109a49061099f83611275565b6112e4565b6001600160a01b0383165f9081526001602052604090208190556109c89030611301565b6001600160a01b0382165f908152600160205260409020546109ea9083611301565b5050505f93845250506007602052506040812080546001600160a01b031916815560010155565b60606006805461051190611aa2565b6008546001600160a01b03163314610a675760405162461bcd60e51b815260206004820152600a60248201526927b7363c9037bbb732b960b11b6044820152606401610901565b6106988282610a20565b604051630f17c35d60e11b8152600481018290523360248201525f905f516020611bc65f395f51905f5290631e2f86ba90604401602060405180830381865afa158015610ac0573d5f5f3e3d5ffd5b505050506040513d601f19601f82011682018060405250810190610ae49190611ada565b610aec575f5ffd5b335f610af9868386610d7d565b90506106e2868686846110bd565b5f610884846102c985858080601f0160208091040260200160405190810160405280939291908181526020018383808284375f92019190915250339250610d09915050565b335f908152600a602052604090205460ff1615610b7e57604051635785f54f60e01b8152336004820152602401610901565b610b88338261136d565b50565b600954604051636eb1769f60e11b81523360048201523060248201525f916001600160a01b03169063dd62ed3e90604401602060405180830381865afa158015610bd7573d5f5f3e3d5ffd5b505050506040513d601f19601f82011682018060405250810190610bfb9190611b27565b905081811015610c445760405162461bcd60e51b81526020600482015260146024820152734e6f7420656e6f75676820616c6c6f77616e636560601b6044820152606401610901565b600954610c5c906001600160a01b0316333085611436565b610c663383610e19565b60405182815233907fb61d00fdfee32467c7d81db64c811ae60c104c346debf36a14afe84b8fce59e59060200160405180910390a25050565b6008546001600160a01b03163314610ce75760405162461bcd60e51b815260206004820152600b60248201526a1027b7363c9037bbb732b960a91b6044820152606401610901565b600880546001600160a01b0319166001600160a01b0392909216919091179055565b60405163ba76f2a960e01b81525f905f516020611bc65f395f51905f529063ba76f2a990610d3d9086908690600401611b3e565b6020604051808303815f875af1158015610d59573d5f5f3e3d5ffd5b505050506040513d601f19601f820116820180604052508101906106859190611b27565b6001600160a01b038084165f90815260026020908152604080832093861683529290529081205481610daf828561106e565b6001600160a01b0387165f9081526001602052604081205491925090610dd5908661106e565b90505f610de15f611475565b9050610dee8284836114a9565b9050610e0e8888610e0984610e03898c6112e4565b89611545565b610fe0565b979650505050505050565b6001600160a01b038216610e425760405163ec442f0560e01b81525f6004820152602401610901565b6001600160a01b0382165f90815260016020526040902054610e6c90610e6783611275565b611574565b6001600160a01b0383165f908152600160205260409020819055610e909030611301565b6001600160a01b0382165f90815260016020526040902054610eb29083611301565b6001600160a01b0382165f90815260016020526040902054610ed390611591565b8060035f828254610ee49190611b67565b90915550505050565b604051630f17c35d60e11b8152600481018290523360248201525f905f516020611bc65f395f51905f5290631e2f86ba90604401602060405180830381865afa158015610f3c573d5f5f3e3d5ffd5b505050506040513d601f19601f82011682018060405250810190610f609190611ada565b610f68575f5ffd5b335f81815260016020526040812054610f81908561106e565b6001600160a01b038084165f908152600260209081526040808320938a1683529290529081205491925090610fb69086611574565b9050610fc28130611301565b610fcc8184611301565b610fd7838783610fe0565b50949350505050565b610fed83838360016115da565b505050565b6008546001600160a01b0316331461079b5760405163118cdaa760e01b8152336004820152602401610901565b5f80546001600160a01b038381166001600160a01b0319831681178455604051919092169283917f8be0079c531659141344cd1fd0a4f28419497f9722a3daafe3b4186f6b6457e09190a35050565b5f5f516020611bc65f395f51905f52638ff94ab461108b856116ce565b611094856116ce565b6040516001600160e01b031960e085901b16815260048101929092526024820152604401610d3d565b6001600160a01b0384166110e657604051634b637e8f60e11b81525f6004820152602401610901565b6001600160a01b03831661110f5760405163ec442f0560e01b81525f6004820152602401610901565b5f611123828461111e5f611275565b611545565b6001600160a01b0385165f90815260016020526040812054919250906111499083611574565b6001600160a01b0386165f908152600160205260409020819055905061116f8130611301565b6111798186611301565b6001600160a01b0386165f9081526001602052604081205461119b90846112e4565b6001600160a01b0388165f90815260016020526040902081905590506111c18130611301565b6111cb8188611301565b6001600160a01b0387165f908152600160205260409020546111ec90611591565b6001600160a01b0386165f9081526001602052604090205461120d90611591565b50505050505050565b6040516001600160a01b03838116602483015260448201839052610fed91859182169063a9059cbb906064015b604051602081830303815290604052915060e01b6020820180516001600160e01b0383818316178352505050506116d8565b6040516333f3d1bf60e11b8152600481018290525f905f516020611bc65f395f51905f52906367e7a37e906024015b6020604051808303815f875af11580156112c0573d5f5f3e3d5ffd5b505050506040513d601f19601f820116820180604052508101906106889190611b27565b5f5f516020611bc65f395f51905f5263de195e2d61108b856116ce565b604051635ca4b5b160e11b8152600481018390526001600160a01b03821660248201525f516020611bc65f395f51905f529063b9496b62906044015f604051808303815f87803b158015611353575f5ffd5b505af1158015611365573d5f5f3e3d5ffd5b505050505050565b6001600160a01b0382166113965760405163ec442f0560e01b81525f6004820152602401610901565b6001600160a01b0382165f908152600160205260408120546113c0906113bb84611275565b61106e565b90506113cc8130611301565b5f6113ed8263931c458b60e01b60405180602001604052805f815250611744565b6040805180820182526001600160a01b03968716815260208082019687525f938452600790529120905181546001600160a01b0319169516949094178455505051600190910155565b6040516001600160a01b03848116602483015283811660448301526064820183905261146f9186918216906323b872dd90608401611243565b50505050565b604051635d7d539760e01b815281151560048201525f905f516020611bc65f395f51905f5290635d7d5397906024016112a4565b5f5f516020611bc65f395f51905f5263d9d017f66114c68661178e565b6114cf8661178e565b6114d88661178e565b6040516001600160e01b031960e086901b1681526004810193909352602483019190915260448201526064015b6020604051808303815f875af1158015611521573d5f5f3e3d5ffd5b505050506040513d601f19601f820116820180604052508101906108849190611b27565b5f5f516020611bc65f395f51905f5263d9d017f66115628661178e565b61156b866116ce565b6114d8866116ce565b5f5f516020611bc65f395f51905f5263f4f9966b61108b856116ce565b5f5b600454811015610698575f600482815481106115b1576115b1611b7a565b5f918252602090912001546001600160a01b031690506115d18382611301565b50600101611593565b6001600160a01b0384166116035760405163e602df0560e01b81525f6004820152602401610901565b6001600160a01b03831661162c57604051634a1406b160e11b81525f6004820152602401610901565b6001600160a01b038085165f90815260026020908152604080832093871683529290522082905580156116a757826001600160a01b0316846001600160a01b03167f36a9e0c1da9cdc6d8f4bd4cb261f9ad6a45eb1641a557ead7530fbeff9a263368460405161169e91815260200190565b60405180910390a35b6116b18230611301565b6116bb8285611301565b6116c58284611301565b61146f82611591565b5f61068882611798565b5f5f60205f8451602086015f885af1806116f7576040513d5f823e3d81fd5b50505f513d9150811561170e57806001141561171b565b6001600160a01b0384163b155b1561146f57604051635274afe760e01b81526001600160a01b0385166004820152602401610901565b5f5f516020611bc65f395f51905f5263f3ff21f284611765611c2042611b67565b61176e8861178e565b866040518563ffffffff1660e01b81526004016115059493929190611b8e565b5f610688826117ab565b5f816117a7576106885f611275565b5090565b5f816117a7576106885f611475565b80356001600160a01b03811681146117d0575f5ffd5b919050565b5f5f83601f8401126117e5575f5ffd5b50813567ffffffffffffffff8111156117fc575f5ffd5b602083019150836020828501011115611813575f5ffd5b9250929050565b5f5f5f6040848603121561182c575f5ffd5b611835846117ba565b9250602084013567ffffffffffffffff811115611850575f5ffd5b61185c868287016117d5565b9497909650939450505050565b5f81518084528060208401602086015e5f602082860101526020601f19601f83011685010191505092915050565b602081525f6106856020830184611869565b5f602082840312156118b9575f5ffd5b5035919050565b5f5f604083850312156118d1575f5ffd5b6118da836117ba565b946020939093013593505050565b5f5f5f5f606085870312156118fb575f5ffd5b611904856117ba565b9350611912602086016117ba565b9250604085013567ffffffffffffffff81111561192d575f5ffd5b611939878288016117d5565b95989497509550505050565b5f60208284031215611955575f5ffd5b610685826117ba565b634e487b7160e01b5f52604160045260245ffd5b5f5f5f60608486031215611984575f5ffd5b8335925060208401359150604084013567ffffffffffffffff8111156119a8575f5ffd5b8401601f810186136119b8575f5ffd5b803567ffffffffffffffff8111156119d2576119d261195e565b604051601f8201601f19908116603f0116810167ffffffffffffffff81118282101715611a0157611a0161195e565b604052818152828201602001881015611a18575f5ffd5b816020840160208301375f602083830101528093505050509250925092565b5f5f5f60608486031215611a49575f5ffd5b611a52846117ba565b9250611a60602085016117ba565b929592945050506040919091013590565b5f5f60408385031215611a82575f5ffd5b611a8b836117ba565b9150611a99602084016117ba565b90509250929050565b600181811c90821680611ab657607f821691505b602082108103611ad457634e487b7160e01b5f52602260045260245ffd5b50919050565b5f60208284031215611aea575f5ffd5b81518015158114611af9575f5ffd5b9392505050565b634e487b7160e01b5f52601160045260245ffd5b8181038181111561068857610688611b00565b5f60208284031215611b37575f5ffd5b5051919050565b604081525f611b506040830185611869565b905060018060a01b03831660208301529392505050565b8082018082111561068857610688611b00565b634e487b7160e01b5f52603260045260245ffd5b63ffffffff60e01b85168152836020820152826040820152608060608201525f611bbb6080830184611869565b969550505050505056fe00000000000000000000000063d8135af4d393b1db43b649010c8d3ee19fc9fda26469706673582212208cf3642c04e813ada5ec8841b5e740d5eaeae8ac231a274f4fe588a97ac631c764736f6c634300081c0033",
  "linkReferences": {},
  "deployedLinkReferences": {}
}