{
  "_format": "hh-sol-artifact-1",
  "contractName": "ConfidentialToken",
  "sourceName": "contracts/ConfidentialERC20/ConfidentialToken.sol",
  "abi": [
    {
      "inputs": [
        {
          "internalType": "string",
          "name": "name_",
          "type": "string"
        },
        {
          "internalType": "string",
          "name": "symbol_",
          "type": "string"
        },
        {
          "internalType": "address[]",
          "name": "_auditorAddresses",
          "type": "address[]"
        }
      ],
      "stateMutability": "nonpayable",
      "type": "constructor"
    },
    {
      "inputs": [
        {
          "internalType": "address",
          "name": "spender",
          "type": "address"
        },
        {
          "internalType": "uint256",
          "name": "allowance",
          "type": "uint256"
        },
        {
          "internalType": "uint256",
          "name": "needed",
          "type": "uint256"
        }
      ],
      "name": "ERC20InsufficientAllowance",
      "type": "error"
    },
    {
      "inputs": [
        {
          "internalType": "address",
          "name": "sender",
          "type": "address"
        },
        {
          "internalType": "uint256",
          "name": "balance",
          "type": "uint256"
        },
        {
          "internalType": "uint256",
          "name": "needed",
          "type": "uint256"
        }
      ],
      "name": "ERC20InsufficientBalance",
      "type": "error"
    },
    {
      "inputs": [
        {
          "internalType": "address",
          "name": "approver",
          "type": "address"
        }
      ],
      "name": "ERC20InvalidApprover",
      "type": "error"
    },
    {
      "inputs": [
        {
          "internalType": "address",
          "name": "receiver",
          "type": "address"
        }
      ],
      "name": "ERC20InvalidReceiver",
      "type": "error"
    },
    {
      "inputs": [
        {
          "internalType": "address",
          "name": "sender",
          "type": "address"
        }
      ],
      "name": "ERC20InvalidSender",
      "type": "error"
    },
    {
      "inputs": [
        {
          "internalType": "address",
          "name": "spender",
          "type": "address"
        }
      ],
      "name": "ERC20InvalidSpender",
      "type": "error"
    },
    {
      "inputs": [
        {
          "internalType": "address",
          "name": "owner",
          "type": "address"
        }
      ],
      "name": "OwnableInvalidOwner",
      "type": "error"
    },
    {
      "inputs": [
        {
          "internalType": "address",
          "name": "account",
          "type": "address"
        }
      ],
      "name": "OwnableUnauthorizedAccount",
      "type": "error"
    },
    {
      "anonymous": false,
      "inputs": [
        {
          "indexed": true,
          "internalType": "address",
          "name": "owner",
          "type": "address"
        },
        {
          "indexed": true,
          "internalType": "address",
          "name": "spender",
          "type": "address"
        },
        {
          "indexed": false,
          "internalType": "euint256",
          "name": "value",
          "type": "bytes32"
        }
      ],
      "name": "Approval",
      "type": "event"
    },
    {
      "anonymous": false,
      "inputs": [
        {
          "indexed": true,
          "internalType": "address",
          "name": "previousOwner",
          "type": "address"
        },
        {
          "indexed": true,
          "internalType": "address",
          "name": "newOwner",
          "type": "address"
        }
      ],
      "name": "OwnershipTransferred",
      "type": "event"
    },
    {
      "anonymous": false,
      "inputs": [
        {
          "indexed": true,
          "internalType": "address",
          "name": "from",
          "type": "address"
        },
        {
          "indexed": true,
          "internalType": "address",
          "name": "to",
          "type": "address"
        },
        {
          "indexed": false,
          "internalType": "euint256",
          "name": "value",
          "type": "bytes32"
        }
      ],
      "name": "Transfer",
      "type": "event"
    },
    {
      "inputs": [
        {
          "internalType": "address",
          "name": "account",
          "type": "address"
        }
      ],
      "name": "_balances",
      "outputs": [
        {
          "internalType": "euint256",
          "name": "",
          "type": "bytes32"
        }
      ],
      "stateMutability": "view",
      "type": "function"
    },
    {
      "inputs": [
        {
          "internalType": "uint256",
          "name": "requestID",
          "type": "uint256"
        },
        {
          "internalType": "bytes32",
          "name": "decryptedBoolInput",
          "type": "bytes32"
        },
        {
          "internalType": "bytes",
          "name": "data",
          "type": "bytes"
        }
      ],
      "name": "_burnCallback",
      "outputs": [],
      "stateMutability": "nonpayable",
      "type": "function"
    },
    {
      "inputs": [],
      "name": "_totalSupply",
      "outputs": [
        {
          "internalType": "uint256",
          "name": "",
          "type": "uint256"
        }
      ],
      "stateMutability": "view",
      "type": "function"
    },
    {
      "inputs": [
        {
          "internalType": "address",
          "name": "owner",
          "type": "address"
        },
        {
          "internalType": "address",
          "name": "spender",
          "type": "address"
        }
      ],
      "name": "allowance",
      "outputs": [
        {
          "internalType": "euint256",
          "name": "",
          "type": "bytes32"
        }
      ],
      "stateMutability": "view",
      "type": "function"
    },
    {
      "inputs": [
        {
          "internalType": "address",
          "name": "spender",
          "type": "address"
        },
        {
          "internalType": "bytes",
          "name": "encryptedAmount",
          "type": "bytes"
        }
      ],
      "name": "approve",
      "outputs": [
        {
          "internalType": "bool",
          "name": "",
          "type": "bool"
        }
      ],
      "stateMutability": "nonpayable",
      "type": "function"
    },
    {
      "inputs": [
        {
          "internalType": "address",
          "name": "spender",
          "type": "address"
        },
        {
          "internalType": "euint256",
          "name": "value",
          "type": "bytes32"
        }
      ],
      "name": "approve",
      "outputs": [
        {
          "internalType": "bool",
          "name": "",
          "type": "bool"
        }
      ],
      "stateMutability": "nonpayable",
      "type": "function"
    },
    {
      "inputs": [
        {
          "internalType": "uint256",
          "name": "",
          "type": "uint256"
        }
      ],
      "name": "auditorAddresses",
      "outputs": [
        {
          "internalType": "address",
          "name": "",
          "type": "address"
        }
      ],
      "stateMutability": "view",
      "type": "function"
    },
    {
      "inputs": [
        {
          "internalType": "address",
          "name": "account",
          "type": "address"
        }
      ],
      "name": "balanceOf",
      "outputs": [
        {
          "internalType": "euint256",
          "name": "",
          "type": "bytes32"
        }
      ],
      "stateMutability": "view",
      "type": "function"
    },
    {
      "inputs": [
        {
          "internalType": "address",
          "name": "from",
          "type": "address"
        },
        {
          "internalType": "uint256",
          "name": "amount",
          "type": "uint256"
        }
      ],
      "name": "burn",
      "outputs": [],
      "stateMutability": "nonpayable",
      "type": "function"
    },
    {
      "inputs": [
        {
          "internalType": "uint256",
          "name": "",
          "type": "uint256"
        }
      ],
      "name": "burnRqs",
      "outputs": [
        {
          "internalType": "address",
          "name": "account",
          "type": "address"
        },
        {
          "internalType": "uint256",
          "name": "amount",
          "type": "uint256"
        }
      ],
      "stateMutability": "view",
      "type": "function"
    },
    {
      "inputs": [],
      "name": "decimals",
      "outputs": [
        {
          "internalType": "uint8",
          "name": "",
          "type": "uint8"
        }
      ],
      "stateMutability": "view",
      "type": "function"
    },
    {
      "inputs": [
        {
          "internalType": "address",
          "name": "spender",
          "type": "address"
        },
        {
          "internalType": "euint256",
          "name": "subtractedValue",
          "type": "bytes32"
        }
      ],
      "name": "decreaseAllowance",
      "outputs": [
        {
          "internalType": "ebool",
          "name": "",
          "type": "bytes32"
        }
      ],
      "stateMutability": "nonpayable",
      "type": "function"
    },
    {
      "inputs": [
        {
          "internalType": "address",
          "name": "spender",
          "type": "address"
        },
        {
          "internalType": "bytes",
          "name": "encryptedAmount",
          "type": "bytes"
        }
      ],
      "name": "decreaseAllowance",
      "outputs": [
        {
          "internalType": "ebool",
          "name": "",
          "type": "bytes32"
        }
      ],
      "stateMutability": "nonpayable",
      "type": "function"
    },
    {
      "inputs": [
        {
          "internalType": "address",
          "name": "spender",
          "type": "address"
        },
        {
          "internalType": "euint256",
          "name": "addedValue",
          "type": "bytes32"
        }
      ],
      "name": "increaseAllowance",
      "outputs": [
        {
          "internalType": "ebool",
          "name": "",
          "type": "bytes32"
        }
      ],
      "stateMutability": "nonpayable",
      "type": "function"
    },
    {
      "inputs": [
        {
          "internalType": "address",
          "name": "spender",
          "type": "address"
        },
        {
          "internalType": "bytes",
          "name": "encryptedAmount",
          "type": "bytes"
        }
      ],
      "name": "increaseAllowance",
      "outputs": [
        {
          "internalType": "ebool",
          "name": "",
          "type": "bytes32"
        }
      ],
      "stateMutability": "nonpayable",
      "type": "function"
    },
    {
      "inputs": [
        {
          "internalType": "address",
          "name": "to",
          "type": "address"
        },
        {
          "internalType": "uint256",
          "name": "amount",
          "type": "uint256"
        }
      ],
      "name": "mint",
      "outputs": [],
      "stateMutability": "nonpayable",
      "type": "function"
    },
    {
      "inputs": [],
      "name": "name",
      "outputs": [
        {
          "internalType": "string",
          "name": "",
          "type": "string"
        }
      ],
      "stateMutability": "view",
      "type": "function"
    },
    {
      "inputs": [],
      "name": "owner",
      "outputs": [
        {
          "internalType": "address",
          "name": "",
          "type": "address"
        }
      ],
      "stateMutability": "view",
      "type": "function"
    },
    {
      "inputs": [],
      "name": "renounceOwnership",
      "outputs": [],
      "stateMutability": "nonpayable",
      "type": "function"
    },
    {
      "inputs": [],
      "name": "symbol",
      "outputs": [
        {
          "internalType": "string",
          "name": "",
          "type": "string"
        }
      ],
      "stateMutability": "view",
      "type": "function"
    },
    {
      "inputs": [],
      "name": "totalSupply",
      "outputs": [
        {
          "internalType": "uint256",
          "name": "",
          "type": "uint256"
        }
      ],
      "stateMutability": "view",
      "type": "function"
    },
    {
      "inputs": [
        {
          "internalType": "address",
          "name": "to",
          "type": "address"
        },
        {
          "internalType": "bytes",
          "name": "encryptedAmount",
          "type": "bytes"
        }
      ],
      "name": "transfer",
      "outputs": [
        {
          "internalType": "bool",
          "name": "",
          "type": "bool"
        }
      ],
      "stateMutability": "nonpayable",
      "type": "function"
    },
    {
      "inputs": [
        {
          "internalType": "address",
          "name": "to",
          "type": "address"
        },
        {
          "internalType": "euint256",
          "name": "value",
          "type": "bytes32"
        }
      ],
      "name": "transfer",
      "outputs": [
        {
          "internalType": "bool",
          "name": "",
          "type": "bool"
        }
      ],
      "stateMutability": "nonpayable",
      "type": "function"
    },
    {
      "inputs": [
        {
          "internalType": "address",
          "name": "from",
          "type": "address"
        },
        {
          "internalType": "address",
          "name": "to",
          "type": "address"
        },
        {
          "internalType": "bytes",
          "name": "encryptedAmount",
          "type": "bytes"
        }
      ],
      "name": "transferFrom",
      "outputs": [
        {
          "internalType": "bool",
          "name": "",
          "type": "bool"
        }
      ],
      "stateMutability": "nonpayable",
      "type": "function"
    },
    {
      "inputs": [
        {
          "internalType": "address",
          "name": "from",
          "type": "address"
        },
        {
          "internalType": "address",
          "name": "to",
          "type": "address"
        },
        {
          "internalType": "euint256",
          "name": "value",
          "type": "bytes32"
        }
      ],
      "name": "transferFrom",
      "outputs": [
        {
          "internalType": "bool",
          "name": "",
          "type": "bool"
        }
      ],
      "stateMutability": "nonpayable",
      "type": "function"
    },
    {
      "inputs": [
        {
          "internalType": "address",
          "name": "newOwner",
          "type": "address"
        }
      ],
      "name": "transferOwnership",
      "outputs": [],
      "stateMutability": "nonpayable",
      "type": "function"
    }
  ],
  "bytecode": "0x608060405234801561000f575f5ffd5b50604051611c11380380611c1183398101604081905261002e91610221565b828282338061005657604051631e4fbdf760e01b81525f600482015260240160405180910390fd5b61005f816100ac565b50600561006c84826103ba565b50600661007983826103ba565b50805161008d9060049060208401906100fb565b5050600880546001600160a01b03191633179055506104749350505050565b5f80546001600160a01b038381166001600160a01b0319831681178455604051919092169283917f8be0079c531659141344cd1fd0a4f28419497f9722a3daafe3b4186f6b6457e09190a35050565b828054828255905f5260205f2090810192821561014e579160200282015b8281111561014e57825182546001600160a01b0319166001600160a01b03909116178255602090920191600190910190610119565b5061015a92915061015e565b5090565b5b8082111561015a575f815560010161015f565b634e487b7160e01b5f52604160045260245ffd5b604051601f8201601f191681016001600160401b03811182821017156101ae576101ae610172565b604052919050565b5f82601f8301126101c5575f5ffd5b81516001600160401b038111156101de576101de610172565b6101f1601f8201601f1916602001610186565b818152846020838601011115610205575f5ffd5b8160208501602083015e5f918101602001919091529392505050565b5f5f5f60608486031215610233575f5ffd5b83516001600160401b03811115610248575f5ffd5b610254868287016101b6565b602086015190945090506001600160401b03811115610271575f5ffd5b61027d868287016101b6565b604086015190935090506001600160401b0381111561029a575f5ffd5b8401601f810186136102aa575f5ffd5b80516001600160401b038111156102c3576102c3610172565b8060051b6102d360208201610186565b918252602081840181019290810190898411156102ee575f5ffd5b6020850194505b8385101561032757845192506001600160a01b0383168314610315575f5ffd5b828252602094850194909101906102f5565b80955050505050509250925092565b600181811c9082168061034a57607f821691505b60208210810361036857634e487b7160e01b5f52602260045260245ffd5b50919050565b601f8211156103b557805f5260205f20601f840160051c810160208510156103935750805b601f840160051c820191505b818110156103b2575f815560010161039f565b50505b505050565b81516001600160401b038111156103d3576103d3610172565b6103e7816103e18454610336565b8461036e565b6020601f821160018114610419575f83156104025750848201515b5f19600385901b1c1916600184901b1784556103b2565b5f84815260208120601f198516915b828110156104485787850151825560209485019460019092019101610428565b508482101561046557868401515f19600387901b60f8161c191681555b50505050600190811b01905550565b611790806104815f395ff3fe608060405234801561000f575f5ffd5b5060043610610187575f3560e01c806370a08231116100d957806395d89b4111610093578063b4015a351161006e578063b4015a3514610358578063c259484b146103a9578063dd62ed3e146103bc578063f2fde38b146103f4575f5ffd5b806395d89b411461032a5780639dc29fac14610332578063b3c06f5014610345575f5ffd5b806370a08231146102b0578063715018a6146102d85780637d32e7bd146102e05780638d86a922146102f35780638da5cb5b14610306578063931c458b14610317575f5ffd5b80633d18d6ce11610144578063499726631161011f578063499726631461025857806350e0d9e01461026b5780635cd2f4d31461027e5780636ebcf60714610291575f5ffd5b80633d18d6ce146102275780633eaaf86b1461023a57806340c10f1914610243575f5ffd5b8063014647f41461018b57806306fdde03146101b357806318160ddd146101c857806329723511146101da5780632bce4508146101ed578063313ce56714610218575b5f5ffd5b61019e6101993660046113c6565b610407565b60405190151581526020015b60405180910390f35b6101bb610457565b6040516101aa9190611443565b6003545b6040519081526020016101aa565b61019e6101e83660046113c6565b6104e7565b6102006101fb366004611455565b61052c565b6040516001600160a01b0390911681526020016101aa565b604051601281526020016101aa565b6101cc61023536600461146c565b610554565b6101cc60035481565b61025661025136600461146c565b6105e3565b005b61019e610266366004611494565b6105f1565b6101cc61027936600461146c565b610643565b61019e61028c36600461146c565b61064e565b6101cc61029f3660046114f1565b60016020525f908152604090205481565b6101cc6102be3660046114f1565b6001600160a01b03165f9081526001602052604090205490565b6102566106df565b61019e6102ee36600461146c565b6106f2565b6101cc6103013660046113c6565b610794565b6008546001600160a01b0316610200565b61025661032536600461151e565b6107e1565b6101bb610928565b61025661034036600461146c565b610937565b61019e6103533660046115e3565b610988565b61038a610366366004611455565b60076020525f9081526040902080546001909101546001600160a01b039091169082565b604080516001600160a01b0390931683526020830191909152016101aa565b6101cc6103b73660046113c6565b610a1e565b6101cc6103ca36600461161d565b6001600160a01b039182165f90815260026020908152604080832093909416825291909152205490565b6102566104023660046114f1565b610a63565b5f61044c8461028c85858080601f0160208091040260200160405190810160405280939291908181526020018383808284375f92019190915250339250610acd915050565b506001949350505050565b6060600580546104669061164e565b80601f01602080910402602001604051908101604052809291908181526020018280546104929061164e565b80156104dd5780601f106104b4576101008083540402835291602001916104dd565b820191905f5260205f20905b8154815290600101906020018083116104c057829003601f168201915b5050505050905090565b5f61044c846102ee85858080601f0160208091040260200160405190810160405280939291908181526020018383808284375f92019190915250339250610acd915050565b6004818154811061053b575f80fd5b5f918252602090912001546001600160a01b0316905081565b604051630f17c35d60e11b8152600481018290523360248201525f905f51602061173b5f395f51905f5290631e2f86ba90604401602060405180830381865afa1580156105a3573d5f5f3e3d5ffd5b505050506040513d601f19601f820116820180604052508101906105c79190611686565b6105cf575f5ffd5b6105da338484610b41565b90505b92915050565b6105ed8282610bdd565b5050565b5f610637858561035386868080601f0160208091040260200160405190810160405280939291908181526020018383808284375f92019190915250339250610acd915050565b50600195945050505050565b5f6105da8383610cb1565b604051630f17c35d60e11b8152600481018290523360248201525f905f51602061173b5f395f51905f5290631e2f86ba90604401602060405180830381865afa15801561069d573d5f5f3e3d5ffd5b505050506040513d601f19601f820116820180604052508101906106c19190611686565b6106c9575f5ffd5b336106d5818585610da4565b5060019392505050565b6106e7610db6565b6106f05f610de3565b565b604051630f17c35d60e11b8152600481018290523360248201525f905f51602061173b5f395f51905f5290631e2f86ba90604401602060405180830381865afa158015610741573d5f5f3e3d5ffd5b505050506040513d601f19601f820116820180604052508101906107659190611686565b61076d575f5ffd5b335f818152600160205260408120546107869085610e32565b905061044c82868684610e81565b5f6107d98461023585858080601f0160208091040260200160405190810160405280939291908181526020018383808284375f92019190915250339250610acd915050565b949350505050565b5f83815260076020908152604091829020825180840190935280546001600160a01b031680845260019091015491830182905284151592918361085f5760405162461bcd60e51b8152602060048201526011602482015270111958dc9e5c1d1a5bdb8819985a5b1959607a1b60448201526064015b60405180910390fd5b8060035461086d91906116c0565b6003556001600160a01b0382165f9081526001602052604090205461089a9061089583610fda565b611049565b6001600160a01b0383165f9081526001602052604090208190556108be9030611066565b6001600160a01b0382165f908152600160205260409020546108e09083611066565b6001600160a01b0382165f90815260016020526040902054610901906110d2565b5050505f93845250506007602052506040812080546001600160a01b031916815560010155565b6060600680546104669061164e565b6008546001600160a01b0316331461097e5760405162461bcd60e51b815260206004820152600a60248201526927b7363c9037bbb732b960b11b6044820152606401610856565b6105ed8282610937565b604051630f17c35d60e11b8152600481018290523360248201525f905f51602061173b5f395f51905f5290631e2f86ba90604401602060405180830381865afa1580156109d7573d5f5f3e3d5ffd5b505050506040513d601f19601f820116820180604052508101906109fb9190611686565b610a03575f5ffd5b335f610a10868386610b41565b905061063786868684610e81565b5f6107d98461027985858080601f0160208091040260200160405190810160405280939291908181526020018383808284375f92019190915250339250610acd915050565b6008546001600160a01b03163314610aab5760405162461bcd60e51b815260206004820152600b60248201526a1027b7363c9037bbb732b960a91b6044820152606401610856565b600880546001600160a01b0319166001600160a01b0392909216919091179055565b60405163ba76f2a960e01b81525f905f51602061173b5f395f51905f529063ba76f2a990610b0190869086906004016116d3565b6020604051808303815f875af1158015610b1d573d5f5f3e3d5ffd5b505050506040513d601f19601f820116820180604052508101906105da91906116fc565b6001600160a01b038084165f90815260026020908152604080832093861683529290529081205481610b738285610e32565b6001600160a01b0387165f9081526001602052604081205491925090610b999086610e32565b90505f610ba55f61111b565b9050610bb282848361114f565b9050610bd28888610bcd84610bc7898c611049565b896111ea565b610da4565b979650505050505050565b6001600160a01b038216610c065760405163ec442f0560e01b81525f6004820152602401610856565b6001600160a01b0382165f90815260016020526040902054610c3090610c2b83610fda565b611219565b6001600160a01b0383165f908152600160205260409020819055610c549030611066565b6001600160a01b0382165f90815260016020526040902054610c769083611066565b6001600160a01b0382165f90815260016020526040902054610c97906110d2565b8060035f828254610ca89190611713565b90915550505050565b604051630f17c35d60e11b8152600481018290523360248201525f905f51602061173b5f395f51905f5290631e2f86ba90604401602060405180830381865afa158015610d00573d5f5f3e3d5ffd5b505050506040513d601f19601f82011682018060405250810190610d249190611686565b610d2c575f5ffd5b335f81815260016020526040812054610d459085610e32565b6001600160a01b038084165f908152600260209081526040808320938a1683529290529081205491925090610d7a9086611219565b9050610d868130611066565b610d908184611066565b610d9b838783610da4565b50949350505050565b610db18383836001611236565b505050565b6008546001600160a01b031633146106f05760405163118cdaa760e01b8152336004820152602401610856565b5f80546001600160a01b038381166001600160a01b0319831681178455604051919092169283917f8be0079c531659141344cd1fd0a4f28419497f9722a3daafe3b4186f6b6457e09190a35050565b5f5f51602061173b5f395f51905f52638ff94ab4610e4f85611330565b610e5885611330565b6040516001600160e01b031960e085901b16815260048101929092526024820152604401610b01565b6001600160a01b038416610eaa57604051634b637e8f60e11b81525f6004820152602401610856565b6001600160a01b038316610ed35760405163ec442f0560e01b81525f6004820152602401610856565b5f610ee78284610ee25f610fda565b6111ea565b6001600160a01b0385165f9081526001602052604081205491925090610f0d9083611219565b6001600160a01b0386165f9081526001602052604090208190559050610f338130611066565b610f3d8186611066565b6001600160a01b0386165f90815260016020526040812054610f5f9084611049565b6001600160a01b0388165f9081526001602052604090208190559050610f858130611066565b610f8f8188611066565b6001600160a01b0387165f90815260016020526040902054610fb0906110d2565b6001600160a01b0386165f90815260016020526040902054610fd1906110d2565b50505050505050565b6040516333f3d1bf60e11b8152600481018290525f905f51602061173b5f395f51905f52906367e7a37e906024015b6020604051808303815f875af1158015611025573d5f5f3e3d5ffd5b505050506040513d601f19601f820116820180604052508101906105dd91906116fc565b5f5f51602061173b5f395f51905f5263de195e2d610e4f85611330565b604051635ca4b5b160e11b8152600481018390526001600160a01b03821660248201525f51602061173b5f395f51905f529063b9496b62906044015f604051808303815f87803b1580156110b8575f5ffd5b505af11580156110ca573d5f5f3e3d5ffd5b505050505050565b5f5b6004548110156105ed575f600482815481106110f2576110f2611726565b5f918252602090912001546001600160a01b031690506111128382611066565b506001016110d4565b604051635d7d539760e01b815281151560048201525f905f51602061173b5f395f51905f5290635d7d539790602401611009565b5f5f51602061173b5f395f51905f5263d9d017f661116c8661133a565b6111758661133a565b61117e8661133a565b6040516001600160e01b031960e086901b1681526004810193909352602483019190915260448201526064016020604051808303815f875af11580156111c6573d5f5f3e3d5ffd5b505050506040513d601f19601f820116820180604052508101906107d991906116fc565b5f5f51602061173b5f395f51905f5263d9d017f66112078661133a565b61121086611330565b61117e86611330565b5f5f51602061173b5f395f51905f5263f4f9966b610e4f85611330565b6001600160a01b03841661125f5760405163e602df0560e01b81525f6004820152602401610856565b6001600160a01b03831661128857604051634a1406b160e11b81525f6004820152602401610856565b6001600160a01b038085165f908152600260209081526040808320938716835292905220829055801561130357826001600160a01b0316846001600160a01b03167f36a9e0c1da9cdc6d8f4bd4cb261f9ad6a45eb1641a557ead7530fbeff9a26336846040516112fa91815260200190565b60405180910390a35b61130d8230611066565b6113178285611066565b6113218284611066565b61132a826110d2565b50505050565b5f6105dd82611344565b5f6105dd82611357565b5f81611353576105dd5f610fda565b5090565b5f81611353576105dd5f61111b565b80356001600160a01b038116811461137c575f5ffd5b919050565b5f5f83601f840112611391575f5ffd5b50813567ffffffffffffffff8111156113a8575f5ffd5b6020830191508360208285010111156113bf575f5ffd5b9250929050565b5f5f5f604084860312156113d8575f5ffd5b6113e184611366565b9250602084013567ffffffffffffffff8111156113fc575f5ffd5b61140886828701611381565b9497909650939450505050565b5f81518084528060208401602086015e5f602082860101526020601f19601f83011685010191505092915050565b602081525f6105da6020830184611415565b5f60208284031215611465575f5ffd5b5035919050565b5f5f6040838503121561147d575f5ffd5b61148683611366565b946020939093013593505050565b5f5f5f5f606085870312156114a7575f5ffd5b6114b085611366565b93506114be60208601611366565b9250604085013567ffffffffffffffff8111156114d9575f5ffd5b6114e587828801611381565b95989497509550505050565b5f60208284031215611501575f5ffd5b6105da82611366565b634e487b7160e01b5f52604160045260245ffd5b5f5f5f60608486031215611530575f5ffd5b8335925060208401359150604084013567ffffffffffffffff811115611554575f5ffd5b8401601f81018613611564575f5ffd5b803567ffffffffffffffff81111561157e5761157e61150a565b604051601f8201601f19908116603f0116810167ffffffffffffffff811182821017156115ad576115ad61150a565b6040528181528282016020018810156115c4575f5ffd5b816020840160208301375f602083830101528093505050509250925092565b5f5f5f606084860312156115f5575f5ffd5b6115fe84611366565b925061160c60208501611366565b929592945050506040919091013590565b5f5f6040838503121561162e575f5ffd5b61163783611366565b915061164560208401611366565b90509250929050565b600181811c9082168061166257607f821691505b60208210810361168057634e487b7160e01b5f52602260045260245ffd5b50919050565b5f60208284031215611696575f5ffd5b815180151581146116a5575f5ffd5b9392505050565b634e487b7160e01b5f52601160045260245ffd5b818103818111156105dd576105dd6116ac565b604081525f6116e56040830185611415565b905060018060a01b03831660208301529392505050565b5f6020828403121561170c575f5ffd5b5051919050565b808201808211156105dd576105dd6116ac565b634e487b7160e01b5f52603260045260245ffdfe00000000000000000000000063d8135af4d393b1db43b649010c8d3ee19fc9fda264697066735822122067b0c98628b9de73d996b5b4013f092e2e0d6e58f29b4e243fd39fe90e0dd3b064736f6c634300081c0033",
  "linkReferences": {},
  "deployedLinkReferences": {}
}