{
  "_format": "hh-sol-artifact-1",
  "contractName": "SignatureVerifier",
  "sourceName": "@inco/lightning/src/lightning-parts/primitives/SignatureVerifier.sol",
  "abi": [
    {
      "inputs": [],
      "name": "ECDSAInvalidSignature",
      "type": "error"
    },
    {
      "inputs": [
        {
          "internalType": "uint256",
          "name": "length",
          "type": "uint256"
        }
      ],
      "name": "ECDSAInvalidSignatureLength",
      "type": "error"
    },
    {
      "inputs": [
        {
          "internalType": "bytes32",
          "name": "s",
          "type": "bytes32"
        }
      ],
      "name": "ECDSAInvalidSignatureS",
      "type": "error"
    },
    {
      "inputs": [],
      "name": "InvalidInitialization",
      "type": "error"
    },
    {
      "inputs": [],
      "name": "NotInitializing",
      "type": "error"
    },
    {
      "inputs": [
        {
          "internalType": "address",
          "name": "owner",
          "type": "address"
        }
      ],
      "name": "OwnableInvalidOwner",
      "type": "error"
    },
    {
      "inputs": [
        {
          "internalType": "address",
          "name": "account",
          "type": "address"
        }
      ],
      "name": "OwnableUnauthorizedAccount",
      "type": "error"
    },
    {
      "anonymous": false,
      "inputs": [
        {
          "indexed": false,
          "internalType": "uint64",
          "name": "version",
          "type": "uint64"
        }
      ],
      "name": "Initialized",
      "type": "event"
    },
    {
      "anonymous": false,
      "inputs": [
        {
          "indexed": true,
          "internalType": "address",
          "name": "previousOwner",
          "type": "address"
        },
        {
          "indexed": true,
          "internalType": "address",
          "name": "newOwner",
          "type": "address"
        }
      ],
      "name": "OwnershipTransferred",
      "type": "event"
    },
    {
      "anonymous": false,
      "inputs": [
        {
          "indexed": false,
          "internalType": "address",
          "name": "newPubkeyAddress",
          "type": "address"
        }
      ],
      "name": "PubkeyAddressChanged",
      "type": "event"
    },
    {
      "inputs": [
        {
          "internalType": "address",
          "name": "newPubkeyAddress",
          "type": "address"
        }
      ],
      "name": "editPubkeyAddress",
      "outputs": [],
      "stateMutability": "nonpayable",
      "type": "function"
    },
    {
      "inputs": [
        {
          "internalType": "bytes32",
          "name": "hash",
          "type": "bytes32"
        },
        {
          "internalType": "bytes",
          "name": "signature",
          "type": "bytes"
        }
      ],
      "name": "isValidSignature",
      "outputs": [
        {
          "internalType": "bool",
          "name": "",
          "type": "bool"
        }
      ],
      "stateMutability": "view",
      "type": "function"
    },
    {
      "inputs": [],
      "name": "opSignerPubkeyAddress",
      "outputs": [
        {
          "internalType": "address",
          "name": "",
          "type": "address"
        }
      ],
      "stateMutability": "view",
      "type": "function"
    },
    {
      "inputs": [],
      "name": "owner",
      "outputs": [
        {
          "internalType": "address",
          "name": "",
          "type": "address"
        }
      ],
      "stateMutability": "view",
      "type": "function"
    },
    {
      "inputs": [],
      "name": "renounceOwnership",
      "outputs": [],
      "stateMutability": "nonpayable",
      "type": "function"
    },
    {
      "inputs": [
        {
          "internalType": "address",
          "name": "newOwner",
          "type": "address"
        }
      ],
      "name": "transferOwnership",
      "outputs": [],
      "stateMutability": "nonpayable",
      "type": "function"
    }
  ],
  "bytecode": "0x6080604052348015600e575f5ffd5b506106508061001c5f395ff3fe608060405234801561000f575f5ffd5b5060043610610060575f3560e01c80631626ba7e14610064578063381d23f61461008c578063715018a6146100a15780638da5cb5b146100a95780639db7637f146100ed578063f2fde38b1461011d575b5f5ffd5b61007761007236600461051c565b610130565b60405190151581526020015b60405180910390f35b61009f61009a3660046105d9565b610177565b005b61009f6101f3565b7f9016d09d72d40fdae2fd8ceac6b6234c7706214fd39c1cd1e609a0528c199300546001600160a01b03165b6040516001600160a01b039091168152602001610083565b7fe7c23215b238bd513ed25539b22c0956fce7d1f5b5dc1096bd872c82e2245086546001600160a01b03166100d5565b61009f61012b3660046105d9565b610206565b5f7fe7c23215b238bd513ed25539b22c0956fce7d1f5b5dc1096bd872c82e2245086546001600160a01b03166101668484610248565b6001600160a01b0316149392505050565b61017f610270565b807fe7c23215b238bd513ed25539b22c0956fce7d1f5b5dc1096bd872c82e224508680546001600160a01b0319166001600160a01b0392831617905560405190821681527fdf62c747bf705432e1ba4993bbed220169a7d30fa94ddf587f87ebf2944b5eab9060200160405180910390a150565b6101fb610270565b6102045f6102cb565b565b61020e610270565b6001600160a01b03811661023c57604051631e4fbdf760e01b81525f60048201526024015b60405180910390fd5b610245816102cb565b50565b5f5f5f5f610256868661033b565b9250925092506102668282610384565b5090949350505050565b336102a27f9016d09d72d40fdae2fd8ceac6b6234c7706214fd39c1cd1e609a0528c199300546001600160a01b031690565b6001600160a01b0316146102045760405163118cdaa760e01b8152336004820152602401610233565b7f9016d09d72d40fdae2fd8ceac6b6234c7706214fd39c1cd1e609a0528c19930080546001600160a01b031981166001600160a01b03848116918217845560405192169182907f8be0079c531659141344cd1fd0a4f28419497f9722a3daafe3b4186f6b6457e0905f90a3505050565b5f5f5f8351604103610372576020840151604085015160608601515f1a61036488828585610440565b95509550955050505061037d565b505081515f91506002905b9250925092565b5f82600381111561039757610397610606565b036103a0575050565b60018260038111156103b4576103b4610606565b036103d25760405163f645eedf60e01b815260040160405180910390fd5b60028260038111156103e6576103e6610606565b036104075760405163fce698f760e01b815260048101829052602401610233565b600382600381111561041b5761041b610606565b0361043c576040516335e2f38360e21b815260048101829052602401610233565b5050565b5f80807f7fffffffffffffffffffffffffffffff5d576e7357a4501ddfe92f46681b20a084111561047957505f915060039050826104fe565b604080515f808252602082018084528a905260ff891692820192909252606081018790526080810186905260019060a0016020604051602081039080840390855afa1580156104ca573d5f5f3e3d5ffd5b5050604051601f1901519150506001600160a01b0381166104f557505f9250600191508290506104fe565b92505f91508190505b9450945094915050565b634e487b7160e01b5f52604160045260245ffd5b5f5f6040838503121561052d575f5ffd5b82359150602083013567ffffffffffffffff81111561054a575f5ffd5b8301601f8101851361055a575f5ffd5b803567ffffffffffffffff81111561057457610574610508565b604051601f8201601f19908116603f0116810167ffffffffffffffff811182821017156105a3576105a3610508565b6040528181528282016020018710156105ba575f5ffd5b816020840160208301375f602083830101528093505050509250929050565b5f602082840312156105e9575f5ffd5b81356001600160a01b03811681146105ff575f5ffd5b9392505050565b634e487b7160e01b5f52602160045260245ffdfea26469706673582212204fd439890ae1afd533048307b625226315e2c127f67c1927ebb08693de3f4d6a64736f6c634300081c0033",
  "linkReferences": {},
  "deployedLinkReferences": {}
}